:020000040800F2
:100000006007002055020008491D0008C91B0008B0
:10001000451D00086D040008852000080000000050
:10002000000000000000000000000000751E000835
:1000300071040008000000004D1D0008791E000832
:100040006F0200086F0200086F0200086F020008CC
:100050006F0200086F0200086F0200086F020008BC
:100060006F0200086F0200086F0200086F020008AC
:100070006F0200086F0200086F0200086F0200089C
:100080006F0200086F0200086F0200086F0200088C
:100090006F0200086F0200086F0200086F0200087C
:1000A0006F0200083D1F00086F0200086F02000881
:1000B0006F0200086F0200086F0200086F0200085C
:1000C0006F0200086F0200086F0200086F0200084C
:1000D0006F0200086F0200086F0200086F0200083C
:1000E0006F0200086F0200086F0200086F0200082C
:1000F0006F0200086F0200086F0200086F0200081C
:100100006F0200086F0200086F0200086F0200080B
:100110006F0200086F0200086F0200086F020008FB
:100120006F0200086F0200086F0200086F020008EB
:100130006F0200086F0200086F0200086F020008DB
:100140006F0200086F0200086F0200086F020008CB
:100150006F0200086F0200086F0200086F020008BB
:100160006F0200086F0200086F0200086F020008AB
:100170006F0200086F0200086F0200080000000014
:100180006F0200086F02000800F002F800F052F859
:1001900014A696E8000CB244B344DA4501D100F04D
:1001A00049F8BAE80F000FA696E83000A5EB040561
:1001B00004EB0607AAEB0704A7F101074FEA1515A0
:1001C0004FEA3414A4F10104AC4201D300F032F838
:1001D00013F0010F18BFFB1A43F0010300F001F800
:1001E000DBE718476C3D00008C3D0000103A24BF4F
:1001F00078C878C1FAD8520724BF30C830C144BF8C
:1002000004680C6070470000704700000023002461
:1002100000250026103A28BF78C1FBD8520728BF16
:1002200030C148BF0B6070471FB503F0D2FD1FBD42
:1002300010B510BD00F0E4F81146FFF7F5FF02F02D
:100240006BFA00F002F903B4FFF7F2FF03BC00F011
:1002500005F900000948804709480047FEE7FEE726
:10026000FEE7FEE7FEE7FEE7FEE7FEE7FEE7FEE766
:1002700004480549054A064B70470000291F00083D
:100280008901000860010020600700206003002051
:100290006003002053EA020C00F069802DE9F04B66
:1002A0004FF00006002B1FBFB3FA83F503FA05F4E5
:1002B00024FA05F65E4012BF1643B2FA82F502FA3E
:1002C00005F4C5F120051EBF22FA05FC44EA0C0422
:1002D000203556EA044C4FEA144418BF641C4FF012
:1002E00000084FF00009904271EB030C39D300294C
:1002F00019BFB1FA81F701FA07F6B0FA80F700FAF0
:1003000007F6C7F120071EBF20FA07FC46EA0C06D5
:100310002037B6FBF4FCA7EB0507103F07F01F0BD7
:10032000CBF120062CFA06F60CFA0BFB44BFB346C1
:100330000026202FA4BF5E464FF0000B5BEA060CA0
:1003400008BF4FF0010B19EB0B0948EB0608ABFB9C
:10035000027C06FB02CC0BFB03CCC01B71EB0C0137
:10036000C1E70B46024641464846BDE8F08B13B54F
:10037000084318BF4FF0FF300146AFF30080BDE8DF
:100380001C4070474FF0000200B513469446964655
:10039000203922BFA0E80C50A0E80C50B1F1200198
:1003A000BFF4F7AF090728BFA0E80C5048BF0CC046
:1003B0005DF804EB890028BF40F8042B08BF7047A4
:1003C00048BF20F8022B11F0804F18BF00F8012B16
:1003D000704770477047704710B500F009F8006823
:1003E00010BD10B5044600F003F8046010BD000015
:1003F000004870471000002000487047100000209F
:100400007546FFF7F9FFAE4605006946534620F0F2
:100410000700854618B020B5FFF72AFFBDE8204049
:100420004FF000064FF000074FF000084FF0000BB0
:10043000AC46ACE8C009ACE8C009ACE8C009ACE81F
:10044000C00921F007018D46704710B50446AFF38F
:1004500000802046BDE81040FFF7F5BE0149182096
:10046000ABBEFEE72600020070470000FEE700007A
:100470007047000072B600BFFEE70000B0B504464A
:1004800000F0E6F8054640F20000C2F200000078F5
:10049000611C18BF044400BF00F0DAF8401BA04202
:1004A000FAD3B0BD2DE9F04F83B000F1200200F186
:1004B0003E4741F60045009207F1FF77C4F202057E
:1004C00008224FEAB726A84208BF072200254FF0AE
:1004D00000084FF00009072E38BF4FEAB7220192FB
:1004E0000AE000BF09F1010908F10208B9F1100F93
:1004F00005F1040500F0A2800F68012202FA09FE4E
:1005000017EA0E0AEED0D1F804C003220CF003075C
:100510007E1E02FA08F4012E6FEA040B12D88468DA
:10052000CE6804EA0B0406FA08F634438460446893
:1005300024EA0E06CCF3001404FA09F426434660BC
:1005400004E000BF032F01D103271EE0C6688C68BA
:1005500006EA0B0604FA08F42643022FC66014D1FB
:100560006FF00302009E02EA590756F807C005F033
:100570001C040F220B69A2402CEA0202A3401A437A
:10058000F251D1F804C00CF00307026807FA08F32F
:1005900002EA0B021A431CF4403F0260A2D0002280
:1005A00043F644030292C4F202031A6843F600447D
:1005B00042F480421A601A68C4F2010402F48042D4
:1005C0000292029A29F003024FF6084C2244CFF619
:1005D000FF7C52F80C3005F00C070F26BE40B343E9
:1005E000019E06FA07F73B4342F80C30A2684B68BD
:1005F00042EA0A0743F60C4CDE0258BF22EA0A0719
:10060000A760C4F2010CDCF800209E0242EA0A074F
:1006100058BF22EA0A07CCF8007062689E0342EADB
:100620000A0758BF22EA0A0767602268DB0342EA2A
:100630000A0758BF22EA0A07276053E703B0BDE85C
:10064000F08F0000002A08BF090481617047000094
:1006500040F25C10C2F200000068704740F20000F7
:1006600040F25C11C2F20000C2F2000100780A6898
:10067000104408607047000080B543F60040C4F2A3
:100680000200016841F400710160016841F4806179
:100690000160016841F480710160032000F086F878
:1006A0000F2000F005F800F027F8002080BD0000C2
:1006B00070B540F20006C2F2000640F2080132783E
:1006C000C2F200014FF47A730968B3FBF2F20446F8
:1006D000B1FBF2F1084600F0C5FF0F2C4FF0010509
:1006E00008D838B94FF0FF3021460022002500F02D
:1006F00031F87460284670BD82B0002043F6400196
:100700000190C4F202014A6842F480424A604A6899
:1007100002F480420192019A0090086840F08050F3
:100720000860086800F080500090009802B07047A0
:10073000002848BF704700F01F01012202FA01F1B2
:100740001C2202EAD0004EF20012CEF200028150CA
:100750007047000010B54EF60C5CCEF2000CDCF8D1
:100760000030C3F3022E8EF00704042C28BF0424AB
:10077000BEF103034FF0FF3E0EFA04F438BF00232E
:10078000A14399400EFA03F39A43114300F00F027C
:1007900000F160430901043A03F564436244002810
:1007A00048BF02F10C03197010BD00004EF60C5149
:1007B000CEF200010A684FF6FF031A4060F30A22E6
:1007C00042F0806040F0FD7008607047002804BF70
:1007D000012070472DE9F04143F60808C4F20208F1
:1007E0000446D8F8F8030D4600F00700814207D907
:1007F00088F8F853D8F8F80300F00700A84277D13A
:100800002068810717D5410705D5D8F8001041F4B5
:10081000E051C8F80010010705D5D8F8001041F4E0
:100820006041C8F80010D8F80010A26821F0F0016B
:100830001143C8F80010C00740D1D8F8F80300F001
:100840000700854207D288F8F853D8F8F80300F07B
:100850000700A8424CD12068410707D5D8F80010FE
:10086000E26821F4E0511143C8F80010000708D5F0
:10087000D8F80000216920F4604040EAC100C8F8BF
:10088000000000F055F8D8F8001043F64072C1F3AC
:100890000311C0F60002515C40F2080220FA01F197
:1008A00040F20400C2F200000068C2F200021160CF
:1008B000FFF7FEFE0020BDE8F08100BF6068811EEA
:1008C000022907D258F8081C89015CBF0120BDE845
:1008D000F08111E0012807D158F8081C89035CBF9A
:1008E0000120BDE8F08107E058F8081C890703D40F
:1008F0000120BDE8F08100BFD8F8001021F003010D
:100900000843C8F80000FFF7A3FE064641F2883707
:10091000D8F80000616800F00C00B0EB810F8CD0BB
:10092000FFF796FE801BB842F2D90320BDE8F081A4
:1009300010B543F60404C4F202046168C1F38101F6
:1009400042F20040C0F2F400DFE801F002040A02C3
:1009500010BD00BF41F60030C0F2B70010BD00BFAF
:10096000206821682368490241F60031C0F2B701CE
:1009700000F03F02C3F388105CBF42F20041C0F2B6
:10098000F401A1FB00010023FFF784FC216802228F
:10099000C1F3014102EB4101B0FBF1F010BD0000D9
:1009A000002804BF012070472DE9F04182B00446C1
:1009B000007843F60006C007C4F202060CD0B06807
:1009C00000F00C00042840F081803068800303D5DB
:1009D0006068002800F06881207880071BD5B06827
:1009E00010F00C0F09D0B06800F00C00082840F09F
:1009F00087807068400200F183803068800703D5EB
:100A0000E068012840F050813068216920F0F8004A
:100A100040EAC10030602078000713D420784007F6
:100A20002AD4A569002D00F03A81B06800F00C00CE
:100A3000082840F0A580012D40F00E81012002B071
:100A4000BDE8F0816069002800F082800020C4F2D7
:100A500047200121C0F8801EFFF7FAFD054600BFC0
:100A6000706F8007DAD4FFF7F3FD401B0228F7D937
:100A7000032002B0BDE8F081306C5FEAC0080AD400
:100A800000200190306C40F080503064306C00F0F9
:100A900080500190019847F20007C4F200073868BF
:100AA000C00547D4386840F480703860FFF7D0FD47
:100AB000054600BF3868C0053CD4FFF7C9FD401BA0
:100AC0000228F7D9032002B0BDE8F081B06800F039
:100AD0000C00082803D1706840023FF576AF6168CA
:100AE0003068B1F5803F07D0B1F5A02F40F09A8073
:100AF00040F480203060306840F4803030609AE00C
:100B0000E068002840F20000C4F247205CD00121D8
:100B10000160FFF79DFD0546306880073FF574AF23
:100B2000FFF796FD401B0228F6D9032002B0BDE86E
:100B3000F08100BFA168306F012905D0052955D18A
:100B400040F004003067306F40F00100306756E03D
:100B50000020C4F247200021C0F8801EFFF778FD76
:100B6000054600BF706F80077FF558AFFFF770FD37
:100B7000401B0228F6D9032002B0BDE8F08100BF77
:100B80000027C4F2472700203866FFF761FD022DD9
:100B900005460DD13068800140F18A80FFF758FD8D
:100BA000401B02284FF00300F4D902B0BDE8F081E9
:100BB0003068800173D5FFF74BFD401B02284FF0D2
:100BC0000300F5D9F1E700BF00210160FFF740FD08
:100BD000054600BF306880077FF51DAFFFF738FD81
:100BE000401B02284FF00300F4D9DEE720F001009B
:100BF0003067306F002920F0040030677AD0FFF7AB
:100C000027FD054641F28837306F800700F1848068
:100C1000FFF71EFD401BB842F6D9032002B0BDE825
:100C2000F08100BF20F4803030603068002920F46B
:100C3000802030607AD0FFF70BFD054630688003D6
:100C40003FF5CAAEFFF704FD401B6428F6D9032028
:100C500002B0BDE8F08100BF7068E16900F4800275
:100C60008A4221D1216A00F03F028A421CD147F614
:100C7000C071626A0140B1EB821F15D1A16A4FF6C3
:100C8000FF73C903994300F44032A1F580318A42D1
:100C90000AD1E16A00F07060B0EB016F04D100206E
:100CA00002B0BDE8F08100BF012002B0BDE8F081D4
:100CB00004F11C052FCD084340EA8210D9034FF6FA
:100CC000FF729143A1F5803140EA056008437060EE
:100CD00001203866FFF7BCFC044600BF3068800185
:100CE000DDD4FFF7B5FC001B02284FF00300F5D957
:100CF0005BE700BFFFF7ACFC054641F2883700BF59
:100D0000306F800708D5FFF7A3FC401BB8424FF0B7
:100D10000300F5D949E700BFB8F1000F3FF581AEF8
:100D2000306C20F0805030647BE600BFFFF790FC11
:100D3000054600BF306880037FF54EAEFFF788FCA4
:100D4000401B64284FF00300F4D92EE790F85100BF
:100D50007047000070B528B1416A29B100210161D6
:100D6000142106E0012070BD4168B1F5827F02D0F8
:100D70001C21002242500026866290F8511029B9A9
:100D800080F85060054600F03DF82846022180F8C2
:100D9000511090E82E0002F482720C6803F40443B0
:100DA00024F040040C601A4405F4006305691A44F9
:100DB00005F0020345691A4405F001038569C46919
:100DC0001A4405F400731A4404F03803046A1A4400
:100DD00004F08003846A1A4304F400531A430A603F
:100DE000436A042202EA154203F010031A444A60DF
:100DF000CA6922F40062CA610121466580F8511077
:100E0000304670BD2DE9F04387B043F2000500681D
:100E1000C4F201050026A8420696CDE904660396B1
:100E2000029603D007B0BDE8F08300BF43F6300060
:100E30000196C4F20200416902AC41F48051416163
:100E400041694FF0020801F4805101910199019626
:100E500001684FF0030941F00201016001680527B4
:100E600001F00201019101990196016841F001012F
:100E700001600068214600F00100019001981820EF
:100E8000029005F55440CDE90386CDF814900697FD
:100E9000FFF708FB8020CDE9020805F55040214608
:100EA000CDE904690697FFF7FDFA07B0BDE8F083C6
:100EB0002DE9F04182B0044690F8510001281AD182
:100EC00000294FF0010018BF002A03D102B0BDE88D
:100ED000F08100BF60681D461746B0F5827F03D1E0
:100EE000A068002800F0BC800E46FFF7B1FB94F824
:100EF0005010012904D1022002B0BDE8F08100BFEA
:100F00008046012084F850000420002184F851001C
:100F10006165A663A787E7872163A186E186A2684A
:100F20002068B2F5004F2164616437D0016849063A
:100F30003FD5E168E08F002943D000287AD0681CB3
:100F40000BD11AE0C068A16B21F8020BA163E08FFE
:100F50000138E087E08F00286CD020688168C907DD
:100F6000F0D1FFF775FBA0EB0800A842F2D342E0F6
:100F7000FFF76EFBE08F00285CD020688168C9070E
:100F8000F6D0C068A16B21F8020BA163E08F013895
:100F9000E087E08F0028F0D14CE000BF016821F02D
:100FA00040010160016821F4804101600168490647
:100FB000BFD4016841F040010160E168E08F002981
:100FC000BBD1B8B3681C0CD124E000BF007BA16B7F
:100FD0000870A06B0130A063E08F0138E087E08FDC
:100FE00040B320688168C907F0D1FFF731FBA0EB5F
:100FF0000800A842F3D3012084F85100002084F8AF
:101000005000032002B0BDE8F08100BFFFF720FBD5
:10101000E08F78B120688168C907F7D0007BA16BA9
:101020000870A06B0130A063E08F0138E087E08F8B
:101030000028EFD16068B0F5827F0ED1A068B0F5CE
:10104000004F02D0B0F5806F16D12168B0F5806FE7
:101050000A6822F040020A600ED1204601210DE00C
:10106000042084F8510020460A463B46009500F0D3
:1010700059F902B0BDE8F0812046802100222B46BC
:10108000CDF8008000F064FE28B1606D40F02000D3
:10109000606520206065012084F85100002084F8FC
:1010A0005000606D002818BF012002B0BDE8F0813B
:1010B0002DE9F04184B01D4616460F460446FFF761
:1010C000C7FA94F8511001290ED18046002F4FF035
:1010D000010018BF002E03D104B0BDE8F08100BFAD
:1010E00094F85000012803D1022004B0BDE8F0813B
:1010F000012084F850000320002184F8510061652C
:101100002763A686E686A163A187E187A06821649C
:10111000B0F5004F2068616407D1016821F04001FB
:101120000160016841F4804101600168490603D40F
:10113000016841F0400101606168731EE268B1FA24
:1011400081F1B3FA83F349095B09B2F5006F41EA13
:10115000030139D131B137F8021BC1602763E08E3A
:101160000138E086E08E002870D0681C0BD11AE0B0
:10117000216B31F8022BC2602163E08E0138E086DA
:10118000E08E002862D0206881688907F0D4FFF7DC
:101190005FFAA0EB0800A842F2D338E0FFF758FA54
:1011A000E08E002852D0206881688907F6D5216B2F
:1011B00031F8022BC2602163E08E0138E086E08EB8
:1011C0000028F0D142E000BF39B139780173206BBB
:1011D00001302063E08E0138E086E08EB0B3681CF9
:1011E0000BD123E0216B09780173206B0130206360
:1011F000E08E0138E086E08E40B320688168890780
:10120000F0D4FFF725FAA0EB0800A842F3D30120A1
:1012100084F85100002084F85000032004B0BDE899
:10122000F08100BFFFF714FAE08E78B12068816882
:101230008907F7D5216B09780173206B0130206392
:10124000E08E0138E086E08E0028EFD120460221B2
:1012500001222B46CDF8008000F07AFDE0B1606DF0
:1012600040F02000606520206065A06838B900204B
:1012700002902068C1680291806802900298012063
:1012800084F85100002084F85000606D002818BFD9
:10129000012004B0BDE8F08140F20800C2F2000075
:1012A000006849F68171C1F25E61A0FB0101480D41
:1012B0004FF47A71484303906068B0F5827F0BD198
:1012C0002046802100222B46CDF8008000F040FD12
:1012D0000028C4D1C9E700BF03980028C5D00398EF
:1012E00001380390206881680906BED5039900295A
:1012F000BBD003990139039181680906B5D50399DB
:101300000029B2D003990139039181680906ACD54F
:1013100003990029A9D00399013903918068000637
:10132000DAD4A2E72DE9F04383B01E4615460F46F6
:101330000446FFF78DF994F851108146012909D12F
:10134000002F4FF0010018BF002D0FD103B0BDE8F2
:10135000F08300BF6068B0F5827F0DD104294FF0A3
:101360000200F3D1A1680029EAD0EFE7002EEDD00A
:1013700094F85000012803D1022003B0BDE8F083A7
:10138000012084F8500094F85100002104281CBF6B
:10139000052084F851006165A563E687A687276369
:1013A000E6862068A686216461640168490603D444
:1013B000016841F0400101606168731EE268B1FAA2
:1013C00081F1B3FA83F3DDF8288049095B09B2F5AE
:1013D000006F41EA030165D131B137F8021BC160EA
:1013E0002763E08E0138E086012518F1010032D133
:1013F00002E000BFFFF72CF9E08E18B9E08F00285B
:1014000000F0B8802068816889070CD5E18E51B161
:10141000012D08D1216B002531F8022BC260216318
:10142000E18E0139E1868168C907E3D0E18F0029A7
:10143000E0D0C068A16B012521F8020BA163E08F09
:101440000138E087D6E700BFFFF702F9A0EB0900FB
:10145000404580F0A580E08E18B9E08F002800F0AC
:1014600089802068816889070CD5E18E51B1012DF2
:1014700008D1216B002531F8022BC2602163E18E77
:101480000139E1868168C907DED0E18F0029DBD010
:10149000C068A16B012521F8020BA163E08F013820
:1014A000E087D1E739B139780173206B01302063CF
:1014B000E08E0138E086012518F1010032D101E00B
:1014C000FFF7C6F8E08E10B9E08F002852D02068F0
:1014D000816889070ED5E18E61B1012D0AD1216B9A
:1014E000002509780173216B206801312163E18EA9
:1014F0000139E1868168C907E2D0E18F0029DFD098
:10150000C068A16B01250870A06B0130A063E08F5B
:101510000138E087D4E700BFFFF79AF8A0EB090095
:1015200040453DD2E08E08B9E08F18B3206881684D
:1015300089070ED5E18E61B1012D0AD1216B0025FD
:1015400009780173216B206801312163E18E013933
:10155000E1868168C907DFD0E18F0029DCD0C0684F
:10156000A16B01250870A06B0130A063E08F0138EA
:10157000E087D1E72046022101224346CDF80090C2
:1015800000F0E6FBB0B1606D40F020006065202007
:101590006065002084F85000012003B0BDE8F083AE
:1015A000012084F85100002084F85000032003B08B
:1015B000BDE8F08340F20800C2F20000006849F67E
:1015C0008171C1F25E61A0FB0101480D4FF47A7197
:1015D000484302906068B0F5827F0BD1204680219D
:1015E00000224346CDF8009000F0B2FB0028CAD19B
:1015F00021E000BF0298F0B1029801380290206803
:101600008168090617D50299A9B102990139029199
:10161000816809060FD5029969B1029901390291D1
:101620008168090607D5029929B102990139029109
:1016300080680006DED4A06838B9002001902068D8
:10164000C1680191806801900198012084F85100DF
:10165000002084F85000606D002818BF012003B0FE
:10166000BDE8F083411E0020B0EB116F1CBF0120CC
:1016700070474EF21002CEF2000251604EF6235136
:10168000CEF20001F0230B700721906011607047CB
:10169000704700007047000090F83C20012A4FF08E
:1016A000020254D010B580F83D200268D2F804E060
:1016B000D2F808C00C682EF07003234341F2FF7487
:1016C000C4F20004A24253600EDC40F2FF73C4F285
:1016D00000039A4216DCB2F1804F2BD040F2004357
:1016E000C4F2000324E000BF40F2FF33C4F2010360
:1016F0009A4213DC41F60003C4F200039A4219D067
:10170000002313E040F60003C4F200039A4211D014
:1017100040F60043C4F200030AE000BF44F20003B5
:10172000C4F201039A4205D040F20043C4F201031F
:101730009A4204D149682CF0800319439160012139
:10174000002280F83D1080F83C20BDE81040104693
:1017500070470000002804BF0120704710B5044600
:1017600090F83D0028B9002084F83C00204600F0A5
:101770001FF8022084F83D002068211D00F0E4FBE2
:10178000012084F8460084F83E0084F83F0084F885
:10179000400084F8410084F8420084F8430084F853
:1017A000440084F8450084F83D00002010BD00008E
:1017B00000680021C4F20101884218BF704780B55B
:1017C00082B00020019043F64400C4F20200016898
:1017D000002241F0010101600068002100F00100D9
:1017E000019001981920FEF7B5FF192002B0BDE85D
:1017F0008040FEF79DBF000090F83D1001291CBFFE
:1018000001207047022180F83D10006841F2FF720C
:10181000C168C4F20002904241F00101C1600DDCD8
:1018200040F2FF71C4F20001884215DCB0F1804F34
:101830002AD040F20041C4F2000123E040F2FF311F
:10184000C4F20101884213DC41F60001C4F2000138
:10185000884219D0002113E040F60001C4F20001D3
:10186000884211D040F60041C4F200010AE000BFF6
:1018700044F20001C4F20101884205D040F2004167
:10188000C4F20101884206D1816801F007010629EE
:1018900004BF00207047016841F001010160002091
:1018A0007047000090F83C20012A4FF002026CD0F3
:1018B00080B580F83D20D0F800C04FF67772DCF894
:1018C000083023EA0202CCF808200B684F2B29DCF1
:1018D0001F2B45DD202B46D0302B44D0402B40F031
:1018E000AF80D1F804E0C968DCF82030DCF82020B3
:1018F00022F00102CCF82020DCF8182022F0F002BF
:1019000042EA011123F00A0242EA0E02CCF8181052
:10191000CCF82020DCF8081041F0470121F030011C
:1019200028E000BF6F2B33DDB3F5005F74D0B3F553
:10193000805F21D0702B40F08380D1E901E3C9683A
:10194000DCF8082043EA0E0322F47F4243EA012137
:101950001143CCF80810DCF8081041F0770109E0D9
:101960000BB1102B6CD1DCF8081021F07001194379
:1019700041F00701CCF808100022012180F83D1049
:10198000002180F83C10BDE880401046704700BF41
:10199000502B21D0602B53D1D1F804E0C968DCF87A
:1019A0002030DCF8202022F01002CCF82020DCF8D7
:1019B000182022F4704242EA013123F0A00242EAE8
:1019C0000E12CCF81810CCF82020DCF8081041F0EA
:1019D000670121F01001CDE7D1F804E0C968DCF817
:1019E0002030DCF8202022F00102CCF82020DCF8A6
:1019F000182022F0F00242EA011123F00A0242EA22
:101A00000E02CCF81810CCF82020DCF8081041F0B9
:101A1000570121F02001ADE7D1E901E3C968DCF805
:101A2000082043EA0E0322F47F4243EA01211143D6
:101A3000CCF80810DCF8081041F480419AE700BFA8
:101A400001229AE77047000070B504460068C56837
:101A50000669B10716D515F0020113D06FF0020127
:101A60000161012121778069800703D02046FFF7BB
:101A7000E9FF05E0204600F08FF8204600F08EF8E0
:101A800000202077700719D515F0040016D02068C3
:101A90006FF00401016102212177806910F4407F19
:101AA00004D02046FFF7CEFF06E000BF204600F03E
:101AB00073F8204600F072F800202077300717D521
:101AC00015F0080014D020686FF0080101610421AE
:101AD0002177C069800703D02046FFF7B3FF05E0F8
:101AE000204600F059F8204600F058F800202077F2
:101AF000F00619D515F0100016D020686FF010010F
:101B0000016108212177C06910F4407F04D020468C
:101B1000FFF798FF06E000BF204600F03DF82046A2
:101B200000F03CF800202077F00718BF15F0010006
:101B300002D1300609D412E020686FF00101016182
:101B4000204600F02DF8300609D515F0800006D0AB
:101B500020686FF0800101612046FFF799FD700653
:101B600009D515F0400006D020686FF040010161F2
:101B7000204600F027F8B00658BF70BD15F02000D1
:101B800008D021686FF0200220460A61BDE870404D
:101B9000FFF780BD70BD0000704700007047000077
:101BA00000680021C4F20101884218BF704740F26A
:101BB00074009FED030AC2F2000000F075BB00BF85
:101BC0006F12833A70470000FEE700002DE9F043F2
:101BD00087B0002743F630000697CDE90477CDE9BA
:101BE00002770197C4F20200016840F2000841F058
:101BF000020101600168C4F2020801F002010191D2
:101C0000019901970168012241F001010160016819
:101C1000102601F001010191019901970168012449
:101C200041F0800101600068102100F08000019007
:101C300001984046FEF706FD08F58065284601211B
:101C40000122FEF7FFFCCDE9026402AE4FF003096A
:101C5000404631460497CDF81490FEF723FC284601
:101C60003146CDE90244CDE90479FEF71BFC07B00B
:101C7000BDE8F083B0B540F2BC0043F20001C2F20F
:101C80000000C4F201014FF48272002380E80E00CC
:101C900000F10C014FF0020C4FF0010E4FF40074F4
:101CA000382581E808500A21C0E90645C0E9083313
:101CB000C0E90A31FFF74EF8002808BFB0BDBDE803
:101CC000B040FEF7D7BB000080B586B040F21410DC
:101CD00000220021C2F20000C4F20102A8234FF446
:101CE0007A7C4FF0800E0591CDE90311CDE900110A
:101CF000C0E90023C0E9021CC0E90411C0F818E0E3
:101D0000FFF728FD002818BFFEF7B4FB4FF4805002
:101D1000029040F21410C2F2000002A9FFF7C2FDC7
:101D2000002818BFFEF7A6FB40F21410C2F2000014
:101D30006946FFF7B1FC002818BFFEF79BFB06B011
:101D400080BD0000FEE70000FEE7000070470000D5
:101D50002DE9F04381B0089C984615460E46814611
:101D6000FEF776FC201A00EB0804FEF771FC40F247
:101D70000801C2F200010968C1F3CB31614300914F
:101D8000D9F800108A683240921BB2FA82F25209E6
:101D9000954203D1002001B0BDE8F083074618F159
:101DA00001000ED130E000BF009801380090D9F852
:101DB000000080683040801BB0FA80F04009854206
:101DC000E8D0FEF745FCC01BA04227D200980028AF
:101DD000EAD10024EBE700BF88683040801BB0FAEE
:101DE00080F040098542D5D088683040801BB0FA29
:101DF00080F040098542CDD088683040801BB0FA21
:101E000080F040098542C5D088683040801BB0FA18
:101E100080F040098542DFD1BCE700BFD9E900016D
:101E20004268B1F5827F22F0E00242600BD1D9F81E
:101E30000810B1F5004F02D0B1F5806F03D10168F1
:101E400021F040010160D9F82810B1F5005F07D1F9
:101E5000016821F400510160016841F40051016002
:101E6000012089F85100002089F85000032001B0BA
:101E7000BDE8F08370470000FEF7F0BB70B592B08C
:101E800006AC20463021FEF77DFA002543F64000DF
:101E90000595CDE90355CDE901550095C4F2020041
:101EA0000168022641F080510160006800F0805016
:101EB0000090009847F200000095C4F2000001680D
:101EC00041F480410160006800F480400090009877
:101ED000012006904FF4803007904FF480000D9061
:101EE00006200E90A820CDE90F0604201190204670
:101EF0000C96FEF755FD18B172B600BFFEE700BFA5
:101F00000F20CDE901064FF4A05004904FF480500B
:101F1000059001A805210395FEF758FC10B172B693
:101F2000FEE700BF12B070BD4EF68850CEF2000042
:101F3000016841F4700101607047000040F2141024
:101F4000C2F20000FFF780BDB0B540F6FF3E056865
:101F5000C4F2000E40F2004C7045C4F2010C25DCC6
:101F6000B0F1804F2FD040F20043C4F200039842FA
:101F700029D040F60003C4F20003984223D041F672
:101F8000FF73C4F20003984228DC70453ADCB0F1DC
:101F9000804F5BD040F20043C4F20003984255D01A
:101FA00040F60003C4F200034EE000BF40F60043D9
:101FB000C4F20003984206D0604504D00023C4F266
:101FC00001039842DBD14B6825F0700243EA020519
:101FD00041F6FF73C4F200039842D6DD43F6FF7367
:101FE000C4F2010398421FDC42F20003C4F2000372
:101FF00098422BD00023C4F20103984226D06045BA
:1020000024D028E040F60043C4F2000398421DD0DB
:1020100041F60003C4F20003984217D041F6004392
:10202000C4F2000310E000BF44F20003C4F2010355
:1020300098420BD044F60003C4F20103984205D045
:1020400044F20043C4F20103984204D1CB6825F462
:10205000407243EA02050A688C684B69C46240F426
:1020600080648262644504BF09690163026825F0E7
:10207000800142F0040219430260012242610160C2
:10208000B0BD0000FEE7000010B582B004460DF1BF
:1020900007010F20012200F083FA9DF807000428B1
:1020A00006D821A101EB800090ED000A02E000BFFC
:1020B0009FED1C0A04F11C010220062284ED060A91
:1020C00000F06EFAB4F91C009FED1C1A00EE100A25
:1020D000B4F91E00B8EEC00A02EE100AB4F92000EE
:1020E000B8EEC22A03EE100AB8EEC33A80EE010A37
:1020F00082EE012A83EE011A94ED063A94E8070075
:102100006261C4E9030123EE000A23EE022A23EEF2
:10211000011A84ED000A84ED012A84ED021A02B04E
:1021200010BD00BF000000000000FA4400007A4427
:102130000000FA4300007A430000FA4200FEFF4626
:102140002DE9F0412DED048B82B004460DF107011D
:102150004120012200F090F99DF80700032805D8DE
:102160004AA101EB800090ED000A01E09FED460AD4
:1021700004F110011220062284ED030A00F07CF91C
:10218000B4F910009FED458A00EE100AB8EEC00ABF
:102190009FED439A20EE080A20EE090A10EE100A7D
:1021A00001F0A6FD05469DF807000E46013001F03E
:1021B00021FB41EC100B00F0EFFD51EC100B2A4617
:1021C000334601F067FB9FED2E0B58EC106B324647
:1021D000434601F05FFB01F041F8B4F912102060B2
:1021E00000EE101AB8EEC00A20EE080A20EE090A26
:1021F00010EE100A01F07CFD07469DF807000D4621
:10220000013001F0F7FA41EC100B00F0C5FD51EC84
:10221000100B3A462B4601F03DFB3246434601F097
:1022200039FB01F01BF8B4F91410606000EE101ACD
:10223000B8EEC00A20EE080A20EE090A10EE100AD5
:1022400001F056FD05469DF807000F46013001F0EC
:10225000D1FA41EC100B00F09FFD51EC100B2A4617
:102260003B4601F017FB3246434601F013FB00F0FA
:10227000F5FFA06002B0BDEC048BBDE8F08100BFAB
:10228000000000000000F83F000000000000404097
:102290000000C040000040410000C0410000003884
:1022A00000007A4400000000F0B581B02DED0A8BEB
:1022B00040F27007C2F200073978B0EE408A002978
:1022C000044644D12046FFF73BFF04F11800FFF716
:1022D000DBFE94ED019A94ED02AAB0EE490AF0EE0D
:1022E0004A0A00F057FA9FED601A20EE010A10EE3C
:1022F000100A01F0FDFC9FED5A0B55EC106B3246B5
:102300002B4601F099F800F0A9FF2AEE0A0A29EEFF
:10231000091A31EE000AF1EEC00A94ED000A606479
:10232000B1EE400A00F036FA9FED501A20EE010A95
:1023300010EE100A01F0DCFC32462B4601F07CF86E
:1023400000F08CFF0021C4E90F10012038702046F6
:10235000FFF7F6FE04F11800FFF796FE94ED029ADF
:1023600094ED01AA29EE090A2AEE0A1A31EE000AB2
:10237000F1EEC00A94ED000AB1EE400A00F00AFA4C
:102380009FED39BA20EE0B0A10EE100A01F0B0FCF6
:102390009FED330B55EC106B32462B4601F04CF899
:1023A00000F05CFFB0EE4A0AF0EE490A0CEE100AAB
:1023B00000F0F0F920EE0B0A10EE100A01F098FC84
:1023C00032462B4601F038F800F048FF94ED0A2A17
:1023D00094ED074A94ED063A94ED096A32EE042A28
:1023E000B6EE004A94ED111A22EE042A22EE082AD3
:1023F00036EE033A94ED085A32EE011A94ED102AA3
:1024000023EE043A94ED0B6A23EE083A33EE022AE7
:1024100036EE053A23EE043A94ED0F4A23EE083ADD
:1024200033EE043A9FED124A9FED125A00EE100A65
:102430002CEE046A21EE051A20EE040A22EE052A8B
:1024400031EE061A32EE000A84ED0F3A84ED100ADE
:1024500084ED111ABDEC0A8B01B0F0BD00BF00BFC6
:10246000182D4454FB21094000003443CDCC3443A3
:102470000AD7A33C48E17A3FF0B581B00024C4F20A
:10248000020415460E46074604F58060012101222C
:10249000FEF7D8F8204610210022FEF7D3F847F0C7
:1024A000800040F2BC07C2F200078DF803000DF176
:1024B0000301384601224FF47A73FEF7F9FD00BF9D
:1024C0003846FEF743FC0328FAD040F2BC07C2F2BC
:1024D00000070DF10201384601224FF47A73FEF72E
:1024E000E7FC00BF3846FEF731FC0428FAD040F282
:1024F000BC07C2F20007384631462A464FF47A73C9
:10250000FEF7D6FC3846FEF721FC0428FAD0204618
:1025100010210122FEF796F801B0F0BD70B582B02F
:102520000024C4F202040D46064604F58060012131
:102530000122FEF787F8204610210022FEF782F8DC
:1025400006F07F0040F2BC06C2F200068DF80600DD
:102550000DF10601304601224FF47A73FEF7A8FD13
:102560003046FEF7F3FB0328FAD08DF8075040F20F
:10257000BC05C2F200050DF10701284601224FF407
:102580007A73FEF795FD00BF2846FEF7DFFB0328B0
:10259000FAD0204610210122FEF754F802B070BD97
:1025A000F0B581B040F20044C4F2020415460E4674
:1025B0000746A4F5806010210122FEF743F820466B
:1025C00001210022FEF73EF847F0800040F2BC07F0
:1025D000C2F200078DF803000DF103013846012215
:1025E0004FF47A73FEF764FD3846FEF7AFFB03281D
:1025F000FAD040F2BC07C2F20007384631462A46FC
:102600004FF47A73FEF754FC3846FEF79FFB04281C
:10261000FAD0204601210122FEF714F801B0F0BDE6
:1026200070B582B040F20044C4F202040D46064682
:10263000A4F5806010210122FEF704F82046012154
:102640000022FDF7FFFF06F07F0040F2BC06C2F259
:1026500000068DF806000DF10601304601224FF408
:102660007A73FEF725FD00BF3046FEF76FFB0328A7
:10267000FAD08DF8075040F2BC05C2F200050DF10A
:102680000701284601224FF47A73FEF711FD00BFBF
:102690002846FEF75BFB0328FAD0204601210122E1
:1026A000FDF7D0FF02B070BD80B582B07E20B621AC
:1026B000FFF734FF3220FDF7E1FE1420B621FFF7CB
:1026C000AFFF1E20FDF7DAFE002000210122FFF7F8
:1026D000D3FE7D200421FFF721FF0520FDF7CEFE6C
:1026E0007C200021FFF71AFF0520FDF7C7FE0DF142
:1026F000070102200122FFF7BFFE0F200221FFF792
:102700008FFF41200021FFF709FF40200A21FFF73A
:1027100005FF02B080BD0000FDF7AEFFFFF7AEFB86
:10272000FFF754FAFFF7A6FAFFF7CEFA40F21410BB
:10273000C2F20000FFF760F8FFF7B6FFFEE703B450
:1027400001984100009850EAC12018BF04204A0DAA
:1027500018BF40F0010040F2FF72B2EB515F08BFBA
:1027600040F00200012808BF052002B07047410078
:10277000080218BF04200A0E18BF40F001004FF0F5
:102780007F4232EA010108BF40F00200012808BF81
:102790000520704770B54FF068422DED048BF0EEC8
:1027A000408A18EE900AB0EE608A18EE101A02EB1A
:1027B0004003B3F1654F3CBF02EB4102B2F1654FFC
:1027C0007DD200BFC0F3C753C1F3C7529A1A1B2A68
:1027D00009DD10F0004F14BF9FED830A9FED830ABF
:1027E000BDEC048B70BD12F11A0F36DA11F0004FF8
:1027F00009D010F0004F0CBF9FED7D0A9FED7D0AC0
:10280000BDEC048B70BD88EE889A19EE100AFFF7B4
:10281000AEFF042808BF00F0FFFC18EE900AFFF797
:10282000A6FF054618EE100AFFF7A1FF044619EEB1
:10283000100AFFF79CFF042D18BF052D08D1042CAA
:1028400018BF052C04D1002804BF0220FDF7C9FDE4
:10285000B0EE490ABDEC048B70BD4200B2EB410FF3
:102860003AD910F0004F19BFDFED630A9FED630AFC
:10287000DFED630A9FED630AB0EE481A0A46B1EE37
:10288000688A80F00041F0EE418A10460A1A520030
:10289000B2F1807F34D2484010F0004FDFED5A1A79
:1028A0009FED5A2A1DBFBEEE001A70EEE10A30EE0F
:1028B000420AB6EE001A08BF70EEA10A00E040E03E
:1028C00008BF30EE020AB0EE682A01EE482A08EE90
:1028D000818AC2EE081A15E011F0004F04BF9FED87
:1028E0004C0AF0EE400AD1D010F0004F19BFDFEDD6
:1028F000490A9FED490ADFED490A9FED490AC5E7FC
:10290000C8EE881A21EEA11A9FED462ADFED462A6D
:1029100041EE022A9FED452A01EE222ADFED442AEC
:1029200041EE022A9FED432ABDEC048B01EE222AE0
:1029300021EE811A01EE020A30EE210A30EE200A61
:1029400070BD4FF07F42B2EB400F28BFB2EB410F9A
:1029500009D2F0EE480AB0EE680ABDEC048BBDE87F
:10296000704000F055BC40EA01035B0008BF41F035
:10297000FF410BD0B2EB400F08BFB2EB410F08D1C3
:1029800020F0804008EE900A21F0804108EE101AF5
:1029900018E7B2EB400F12BF5FEA410340F0FF407F
:1029A00001F000413FF40EAFB2EB410F12BF5FEAFE
:1029B000400200F0004041F0FF413FF403AF4A0005
:1029C00092EA40033FF5FEAE002AACBF9FED1A0A23
:1029D0009FED1A0A68EE808A28EE008A18EE900AA7
:1029E00018EE101AEEE60000DB0FC9BFDB0FC93F7F
:1029F000DB0F4940DB0F49C00000C9BF22AAFDB967
:102A00000000C93F22AAFD390060ED3EC30ACE375F
:102A100000000000000049C022AA7DBA0000494021
:102A200022AA7D3A2DAD65BD8FB8D53D0FB511BE3B
:102A300061C84C3EA8AAAABE0000804F0000802FAB
:102A400070B52DED020B2DED0A8B82B00D98C40FE1
:102A500020F00045AE48854248D3AE48854219D3A0
:102A60000C99C5F31300084309D09DED0C0B02B07F
:102A7000BDEC0A8B02B0BDE8704000F09DBB002C9D
:102A800014BF9FEDA50B9DED0C0B02B0BDEC0A8BA6
:102A900002B070BD9FEDA20B53EC102B9DED0C0B03
:102AA00051EC100B00F0F4FF0AD20220FDF799FC64
:102AB00002B0BDEC0A8B02B0BDE8704000F088BBEC
:102AC0009FED990B53EC102B9DED0C0B51EC100B63
:102AD00000F0A4FE0AD20220FDF783FC02B0BDEC98
:102AE0000A8B02B0BDE8704000F082BB90489FEDB9
:102AF00092BBA8425CD29248854219D29148784450
:102B000000EBC40090ED000B53EC102B9DED0C0B73
:102B100051EC100B00F0FEFF41EC1A0B8A48784490
:102B200000EBC40090ED009BC4F10100041B36E0F3
:102B30009FED870B53EC102B9DED0C0B51EC100B04
:102B400000F0A8FE41EC100B8348784400EBC40071
:102B500090ED001B51EC100B53EC112B00F0B0FB6F
:102B600000F002FE044600F02EFE41EC180B9FED33
:102B70007C0B53EC102B00F08DFE9DED0C1B53ECE9
:102B8000112B00F0BBFF41EC1A0B9FED770B51ECC2
:102B9000180B53EC102B00F07DFE41EC190B51EC9F
:102BA0001A0B53EC192B00F0B5FFCDE90C011BE01B
:102BB0006F48854217D29FED700B53EC102B9DEDA3
:102BC0000C0B51EC100B00F07BFB53EC1B2B00F0BB
:102BD0005FFF08D29DED0C0B53EC1B2B51EC100B3F
:102BE00000F06EFB6EE000249DED0C0B53EC102BFF
:102BF00051EC100B00F04EFE41EC180B6048052123
:102C0000B0EE480AF0EE680A784400F059FA53EC46
:102C1000182B51EC100B00F03DFE9DED0C1B53ECFE
:102C2000112B00F06BFF41EC180B9FED570B5CB3C1
:102C300053EC182B51EC100B00F06CFF9DED0C0BBE
:102C400041EC1C0B53EC182B51EC100B00F022FE46
:102C500053EC1C2B00F0F0FB53EC192B00F04EFF53
:102C600053EC1A2B00F056FF53EC1B2B00F046FFE1
:102C7000CDE900016FF47F70844226DB01EB045044
:102C800001909DED000B00E753EC102B51EC180B5D
:102C900000F040FF9DED0C0B41EC190B53EC182B91
:102CA00051EC100B00F0F6FD53EC192B00F0C4FBB7
:102CB0009DED0C1B53EC112B00F02CFF53EC1B2B48
:102CC00000F01CFF41EC100BDFE608464FF07A5194
:102CD00001EB04519FED2E0B084453EC102B019097
:102CE0009DED000B51EC100B00F0D4FD0D4645ECB2
:102CF000100B044651EC100BFFF721FD042808BF10
:102D000000F076FA45EC104BBFE600000000000032
:102D1000422E86400000F07F00000000000000000E
:102D2000EF39FAFE422E864051302DD5104987C02A
:102D3000422ED63F00000000000000000000F03FDF
:102D4000B2A2F03FF6130000E613000000000000FE
:102D5000FE822B654715F73F9A1300000000000024
:102D60000000E0FE422EE63F763C7935EF39EA3D41
:102D70000000303E000000009C7500883CE4377E77
:102D80000C130000000000000000000000000040E4
:102D9000000000000000700110B52DED068BB0EEB4
:102DA000408AF0EE608A18EE101A84B018EE900A8D
:102DB0008DED008B002918BF0121084320F0004051
:102DC000C0F17F6000F1E040C00F9FED47AB9FED89
:102DD000489B06D153EC192B51EC180B00F088FCE2
:102DE00009D1B0EE480AF0EE680A00F0E5F904B047
:102DF000BDEC068B10BD9FED400B51EC180B53EC56
:102E0000102B00F075FC01BFB0EE4A0AF0EE6A0A22
:102E100004B0BDEC068B08BF10BD02AA51EC180B24
:102E200000F013FA9FED360B41EC180B53EC102B0E
:102E30009DED020B51EC100B00F0F0FC38BF324C52
:102E400014D39FED330B53EC102B9DED020B51EC83
:102E5000100B00F01DFE38BF4FF4006406D39DED4B
:102E6000020B51EC100B00F07FFC04469FED2A0B87
:102E700051EC180B53EC102B00F00CFD00F0D4F9C2
:102E8000224600F0D9F941EC180B04F57F7040F2AE
:102E9000FB71884221D353EC1A2B51EC180B00F034
:102EA00027FC05D10220FDF79CFA00F0A1F99EE76E
:102EB00053EC192B51EC180B00F01AFC05D1022031
:102EC000FDF78FFA00F084F991E751EC180BFFF74A
:102ED00036FC042808BF00F08BF9B0EE480AF0EE8B
:102EE000680A84E700000000000000000000000005
:102EF000000000000000F07F000000000000F0FF74
:102F0000000000000000A0C000F8FFFF000000006B
:102F1000000000000000A040EF39FAFE422EE63F1C
:102F200030B540F2FF742DED048BF0EE608A18EEA0
:102F3000901A85B0B0EE408A9FED2B9B05468DED33
:102F4000008B34EA115147D053EC192B51EC180B7C
:102F500000F0CEFB40D02A4651EC180B00F07DFF6C
:102F600041EC180B18EE900A8DED008B34EA1050EE
:102F70001CD053EC192B51EC180B00F0B9FB2BD1E2
:102F80000220FDF72EFA00F033F910EE901A18EE39
:102F9000900A8DED020B8DED008B61F31E00039006
:102FA0009DED020B05B0BDEC048B30BD0220FDF79A
:102FB00018FA00F00DF910EE901A18EE900A8DED47
:102FC000020B8DED008B61F31E0003909DED020B53
:102FD00005B0BDEC048B30BD05B0B0EE480AF0EE94
:102FE000680ABDEC048B30BD00000000000000004A
:102FF00031B52DED020BDDE900C2BCF1000F14BFAD
:103000000121002141EA420111F5001F07D99DED80
:10301000000B80ED000B9DED000B03B030BDC2F343
:103020000A510024A1F2FF3102F0004314291EDAF4
:103030000029B8BFC0E9004329DB204D25FA01F182
:1030400002EA010555EA0C0C1BD022EA0101C0E995
:10305000004190ED000B53EC102B9DED000B51EC5B
:10306000100B00F057FD03B041EC100B30BD3329BD
:1030700007DC4FF0FF35143925FA01F11CEA010F86
:1030800009D19DED000B80ED000BCDE900439DEDD6
:10309000000B03B030BD2CEA0101C0E9001290ED35
:1030A000000B53EC102B9DED000B51EC100B00F0BE
:1030B00031FD03B041EC100B30BD0000FFFF0F00ED
:1030C00070B504462DED028B4D1E00EBC500B0EE31
:1030D000408AF0EE608A90ED000B35F0060017D0C4
:1030E00053EC182B51EC100B00F0D4FB41EC100BFF
:1030F0006D1E04EBC50090ED001B51EC100B53EC62
:10310000112B00F0DDF841EC100B35F00600E7D193
:10311000022D36D0042D1CD0062D1CBFBDEC028B19
:1031200070BD53EC182B51EC100B00F0B3FB94ED79
:103130000A1B53EC112B00F0C3F853EC182B00F0D2
:10314000A9FB94ED081B53EC112B00F0B9F841ECEE
:10315000100B53EC182B51EC100B00F09BFB94ED73
:10316000061B53EC112B00F0ABF853EC182B00F0BE
:1031700091FB94ED040B53EC102B00F0A1F841EC03
:10318000100B53EC182B51EC100B00F083FB94ED5B
:10319000021B53EC112B00F093F853EC182B00F0AA
:1031A00079FB94ED001B53EC112B00F089F8BDEC7A
:1031B000028B41EC100B70BD10B553EC102B51EC91
:1031C000100B00F07DF841EC100B10BD000000006A
:1031D0009FED050B10B553EC102B51EC100B00F0CC
:1031E00059FB41EC100B10BD000000000000007006
:1031F0009FED050B10B553EC102B51EC100B00F0AC
:1032000049FB41EC100B10BD000000000000001055
:1032100030EE200A704700009FED020A20EE000AFF
:10322000704700000000001010B541EC100BFFF7D4
:1032300007FC51EC100B10BD10B541EC100B104603
:10324000FFF76EFE51EC100B10BD10B541EC100BEA
:103250001046FFF7CDFE51EC100B10BD21F00042DF
:1032600001F00043A2F16052B2F5801F28BFD2F1F5
:103270007F6C0BD95FEA001C43EAC20242EB50703C
:1032800018BF704728BF20F001007047B2F5801FBB
:10329000BCBF184670474FEA410C1CF5001F02D214
:1032A000084600F0A3BD70B500F09EFB0000008949
:1032B000FFF7F6BF4FF00040A0F580007047000018
:1032C00010B591EA030F48BF83F0004300F12A8450
:1032D000841A71EB030C05D2121943EB0C03001B8B
:1032E00061EB0C014FEA1154A4EB135CDFF81CE115
:1032F0001EEA430F18BF9EEA445F00F0748021EA83
:10330000045123EA0E0343F48013DCF1200E32D380
:1033100022FA0CFE10EB0E0023FA0CFE41EB0E011C
:10332000CCF1200E03FA0EFE10EB0E00CCF1200EB5
:1033300051F10001B1F5801F32D201EB045112FAB4
:103340000EF2BDE8104058BF7047401C38BF5FEA1E
:10335000420218BF7047002814BF20F0010041F15D
:1033600000014FEA410313F5001F38BF7047A1F178
:10337000C04100F087BB012A43EB0302ACF1200CF3
:10338000DCF11F0E32BF4FF0000E23FA0CF310EBEE
:10339000030041EB0451B4EB115FD0D0A1EB045119
:1033A00001F58011490801EB04515FEA30000ED3AA
:1033B00050F1000038BF12FA0EFE08D1BDE81040EF
:1033C000C9E7401C38BF5FEA4202CAD1C3E7BDE883
:1033D00010404FEA410313F5001F38BF7047A1F1B9
:1033E000C04100F04FBB9EEA445F08D011EA5E0F77
:1033F000BDE8104004BF01F0004100207047BDE867
:10340000104070B500F0F0FA64FBBE3E0000E0FF33
:1034100002494FF0000000F0EEBC00BF0000F87F52
:10342000491058BFC1F140415B1058BFC3F1404340
:103430008B42EFF3008070472DE9C04130B4DFF8D4
:10344000A8C23CEA111418BF3CEA131400F0F08043
:103450001CEA111481EA030544EAD57418BF1CEA7A
:10346000131500F0CB80A4EB050404F17F7404F580
:1034700000344FF0004545EAC12145EAC32341EA43
:10348000505143EA52534FEAC0204FEAC2229942B8
:1034900008BF904200F0A0804FEA13650FF2481673
:1034A000765D4FEA134506FB05F7C7F1807706FB0B
:1034B00007F74FEAD737A7FB03687642A7FB06CE8C
:1034C000C8F5803838BFA8F1010807FB08E6A6FB5D
:1034D000028C4FF0000EE6FB03CED8F100086FEA35
:1034E0000C0C5CF1000C6FEA0E0E4EF1004EA6FBC8
:1034F0000C584FF00007E6FB0E87A1FB08C6A0FBA7
:1035000007CE16EB0E064FF0000545F10005E1FB76
:10351000076515F1E04E7EBFA4F580345FEA4606EC
:103520006D4116F1800745F100054FEA172747EA7C
:1035300005674FEA15254FEA0666A6F1DE46B6F1A5
:10354000805F20D9384605EBC47124F0010C01EBF3
:103550000C11BCF1FE6F02D8F0BCBDE80081244222
:103560005CBF01F5801E9EEAC47F02D4F0BCBDE8BA
:103570000081244200F13980A1F1C041F0BCBDE8D6
:10358000004100F07FBA4FEAD02040EA41504FEAB4
:10359000D1214FEAD22242EA43524FEAD323A7FB7A
:1035A000028607FB036605FB02661EEA0E0F58BF84
:1035B000A6EB0056B6EB00564FEA520E4EEAC37E1B
:1035C00018EB0E0E56EB530EBCD518EB02085E41FD
:1035D0007F1C55F10005B5E74FF480154FF000074B
:1035E0004FF000064FF00008ACE701F1C04101F0D8
:1035F00000414FF00000F0BCBDE800810CEA13155B
:1036000011EA0C1F00D00CE013EA0C1F00F025801B
:103610004FF0000081EA030101F00041F0BCBDE879
:103620000081F0BCBDE8004181EA030100F02ABA44
:10363000F0BCBDE8004170B500F0D6F9097EFC3E53
:1036400000F007B84FF0000081EA030101F00041EB
:10365000704781EA030100F015BAF0BCBDE80041F3
:1036600022494FF000007047FFFDFBF9F7F5F4F237
:10367000F0EEEDEBE9E8E6E4E3E1E0DEDDDBDAD80D
:10368000D7D5D4D3D1D0CFCDCCCBCAC8C7C6C5C46B
:10369000C2C1C0BFBEBDBCBBBAB9B8B7B6B5B4B382
:1036A000B2B1B0AFAEADACABAAA9A8A8A7A6A5A46D
:1036B000A3A3A2A1A09F9F9E9D9C9C9B9A99999831
:1036C0009797969595949393929191908F8F8E8ED4
:1036D0008D8C8C8B8B8A8989888887878685858461
:1036E00084838382828181800000FF070000F87F4D
:1036F00051EA030C17D41CF5801F58BFBCF5801F7E
:1037000000F10680994218BF704708BF9042704789
:1037100007D711F5801F58BF13F5801F19D49942A0
:103720007047894270471CF5801F08D5BCF5801F83
:10373000F7D58B4218BF704708BF824270474FF4DD
:10374000001C1CEB410F38BF1CEB430F01D28B4216
:10375000704770B500F048F9922449004FF00051CD
:103760004FF08053FFF75CBE4FEA41034FEA5353DB
:10377000A3F58063D3F11E03C8BFD3F1210C0CDD88
:103780004FF0004242EAC12242EA505232FA03FCB0
:103790008CEAE17CACEBE1707047102BC4BF0020D9
:1037A000704703F5787CBCF1FF3F04D06FF0004216
:1037B00082EA2100704770B500F016F94992248022
:1037C00000207047F2E710F0004248BF4042B0FAD4
:1037D00080F310FA03F10AD0C3F11D0303F58063EF
:1037E00002EB03524FEA415002EBD12170474FF0F8
:1037F00000007047B0FA80F310FA03F10AD0C3F169
:103800001D0303F580634FEA03524FEA415002EB78
:10381000D12170474FF000007047000051EA030CBF
:1038200017D41CF5801F58BFBCF5801F00F106801F
:10383000994218BF704708BF9042704707D711F5EB
:10384000801F58BF13F5801F19D4994270478942D1
:1038500070471CF5801F08D5BCF5801FF7D58B423B
:1038600018BF704708BF824270474FF4001C1CEB22
:10387000410F38BF1CEB430F01D28B42704770B52C
:1038800000F0B2F8922449004FF000514FF08053FD
:10389000FFF7C6BD70B5DFF848C11CEA111E1EBF98
:1038A0001CEA13159EEA0C0F95EA0C0F00F06F80CE
:1038B00081EA03044EEAD47EAE4421EA4C1123EAA5
:1038C0004C1341F4801143F48013AEF17F7EA1FBD1
:1038D000024CA0FB0365361955EB0C05A1FB034C0C
:1038E0004CF10003A0FB021C16EB0C06654153F1E2
:1038F0000003094218BF46F0010613F4007F0BD104
:103900004FEA03314FEA053041EA155140EA1650BB
:1039100034036FF003020AE04FEAC3214FEAC520E7
:1039200041EA555140EA5650F4026FF0020202EBB0
:103930002E4201EB025585EACE710AD05FEA440CB3
:1039400018BF24F0004450F1000041F1000120EACA
:10395000D47040F2FE7C624500D270BDA84214BF14
:103960004FF080444FF04044002E08BF0024BEF1C9
:10397000806FA8BFA1F1C041BDE8704080F2828095
:1039800001F1C04101F000414FF0000070470CEA26
:1039900013159EEA0C0F18BF95EA0C0F06D081EAAA
:1039A000030E4FF000000EF0004170BD00F01CF857
:1039B0008900013E00F007B800F009B84FEA430C57
:1039C0005FEA5C5C08D081EA030100F05BB84FEA73
:1039D000410C5FEA5C5CF6D102494FF00000704791
:1039E0000000FF070000F87F0EF1020E2EF0030E1C
:1039F0005EF8046B364205D4012A43EB030515F546
:103A0000001F12D8012841EB010C1CF5001F0CD837
:103A10000ED14FEAD17C0CEB4C0C0CF1020C15F5DD
:103A2000001F08BF4CEBD37C04E04FF0080C01E012
:103A30004FEAD37C0CEB4C0526FA05F606F0070698
:103A4000B6F1040C06D20EEB860CBDE870404CF0CB
:103A5000010C6047DFE80CF0090B02024FF0004157
:103A6000A1F500214FF0000070BD19461046012855
:103A700051EB010418BFD4F5001484BF002001F0FD
:103A8000004170BD0808A0F500114FEA31017047F0
:103A900053EA010C17D41CF5801F58BFBCF5801FDA
:103AA00000F106808B4218BF704708BF8242704702
:103AB00007D713F5801F58BF11F5801F19D48B420B
:103AC00070479B4270471CF5801F08D5BCF5801FCE
:103AD000F7D5994218BF704708BF904270474FF41E
:103AE000001C1CEB430F38BF1CEB410F01D2994265
:103AF00070470FB40CBC03BCFFF7C1BE10B591EA10
:103B0000030F81F000413FF5E3AB83F0004300F089
:103B100009B8000010B591EA030F48BF83F00043D5
:103B20003FF5D6AB841A71EB030C07D28CF0004C36
:103B3000121943EB0C03001B61EB0C014FEA11540B
:103B4000A4EB135CDFF8A4E11EEA430F18BF9EEA62
:103B5000445F00F0B48021EA045123EA6E0352422C
:103B6000C3EB6E0338BF5B1EDCF1200E25D322FAB7
:103B70000CFE10EB0E0043FA0CFE41EB0E01CCF1F3
:103B8000200E03FA0EFE10EB0E00CCF1200E51F1C8
:103B9000000129D401EB045112FA0EF2BDE81040E5
:103BA00058BF7047401C1CBFB2F1004F704700283F
:103BB0000CBF491C20F00100704712EB020E43EBD2
:103BC000030218BF4FF0010E4EEA4202ACF1200C86
:103BD000DCF11E0E56D943FA0CFE10EB0E00CCF1B0
:103BE0001E0E51F1FF31D5D50EF1010E12FA0EFE67
:103BF000404141EB010101EB445C5FEA5C5C10D9A0
:103C000001EB045110EBDE7038BFBEF1004FBDE890
:103C1000104018BF704700280CBF491C20F001005D
:103C2000704734D24FEAD42C24F4006411F500110B
:103C30001BD0B1FA81F20B3AA41AA41ED2F12003D0
:103C4000914030FA03F31943904001EBCC7101EB42
:103C50000451002CBDE81040A8BF704701F1C041DD
:103C600001F000414FF000007047B0FA80F310FA05
:103C700003F102D1BDE810407047E41A173C480533
:103C8000C90AE2E701EB0451BDE810407047491052
:103C90004FEA300001EB0451BDE8104002E04FF064
:103CA000000170474A0008BF0042F8D0B2F5001F7B
:103CB00028BF704701F000414FF0000070479EEAB6
:103CC000445F07D011EA5E0FBDE8104004BF002139
:103CD00000207047BDE8104070B5FFF785FE00BFBB
:103CE00040DFF63E104683F0004170470000E0FFE1
:103CF00043004FEAD30C4FEA3C0C43401FBF400740
:103D00000CF1605113F0FE4F70471CF0006F03D1AF
:103D10000CF00041002070470CF0004343EA507063
:103D200040EACC0010B500F00EF800BF0000009291
:103D30004FEA0001FFF7A6BE4FF00041A1F50021B8
:103D40004FF0000070470EF1020E2EF0030E5EF8E9
:103D5000044B244204D44FEA4102B2F17F4F11D800
:103D60004FEA4003B3F17F4F0CD80ED14FEAD07C1D
:103D70000CEB4C0C0CF1020CB2F17F4F08BF4CEB7A
:103D8000D17C04E04FF0080C01E04FEAD17C0CEB51
:103D90004C0324FA03F404F00704B4F1040C06D233
:103DA0000EEB840CBDE810404CF0010C6047DFE8DE
:103DB0000CF0070802024FF00040A0F5800010BD93
:103DC0000846420018BFD2F1807288BF00F0004060
:103DD00010BDF1EE100A4FF6FF71C0F2C03120EABB
:103DE000010040F04070E1EE100A7047FF2141EA07
:103DF000D050C00570470CF00F03092B08BF0820F6
:103E000000F059800A2B0BD0082B18BF704708BF51
:103E10001CF0400F0AD04FF000004FF00001704737
:103E20001CF0400F18BF4FF0004070471CF0100FFF
:103E300008D000F07F4220F0704342EAD3014FEAFD
:103E40004370704700F0604021F07F4242EA000278
:103E500001F07F4040EA727070474FF0FF0C4CF465
:103E6000E06C1CEA11531CBF9CEA030C9445C2BFD2
:103E7000DA4201EB02517047002B0DD0BCF1000F6C
:103E80000FD001F00041002AA4BF41F0E04141F011
:103E90007F614FF00000704701F000414FF00000DB
:103EA000704750EA01334FF09B0C18BF4CF0806C08
:103EB0007FF4AEAA70471CF4801F11D01CF4E02FD1
:103EC00003D06FEACC31490070474FF04050EFF318
:103ED000008222F0704242EA000282F300887047BA
:103EE0004FF0000070470000000000000000E03FBD
:103EF000000000000000E0BF0000E0FE422EE63FB0
:103F00000000E0FE422EE6BF763C7935EF39EA3D0F
:103F1000763C7935EF39EABD3E5555555555C53F87
:103F200093BDBE166CC166BF2CDE25AF6A56113F2D
:103F3000F16BD2C541BDBBBED0A4BE726937663E2F
:103F40000000000000000000010203040607080949
:103F5000703F00080000002010000000EC01000885
:103F6000803F000810000020500700000C020008ED
:103F700001000000100000000024F4000000000018
:040000050800018965
:00000001FF
