:020000040800F2
:10000000F807002055020008612B0008BD210008F8
:100010005D2B00086D0400089D2E00080000000004
:100020000000000000000000000000008D2C00080F
:100030007104000800000000652B0008912C0008E6
:100040006F0200086F0200086F0200086F020008CC
:100050006F0200086F0200086F0200086F020008BC
:100060006F0200086F0200086F0200086F020008AC
:100070006F0200086F0200086F0200086F0200089C
:100080006F0200086F0200086F0200086F0200088C
:100090006F0200086F0200086F0200086F0200087C
:1000A0006F020008552D00086F0200086F0200085B
:1000B0006F0200086F0200086F0200086F0200085C
:1000C0006F0200086F0200086F0200086F0200084C
:1000D0006F0200086F0200086F0200086F0200083C
:1000E0006F0200086F0200086F0200086F0200082C
:1000F0006F0200086F0200086F0200086F0200081C
:100100006F0200086F0200086F0200086F0200080B
:100110006F0200086F0200086F0200086F020008FB
:100120006F0200086F0200086F0200086F020008EB
:100130006F0200086F0200086F0200086F020008DB
:100140006F0200086F0200086F0200086F020008CB
:100150006F0200086F0200086F0200086F020008BB
:100160006F0200086F0200086F0200086F020008AB
:100170006F0200086F0200086F0200080000000014
:100180006F0200086F02000800F002F800F052F859
:1001900014A696E8000CB244B344DA4501D100F04D
:1001A00049F8BAE80F000FA696E83000A5EB040561
:1001B00004EB0607AAEB0704A7F101074FEA1515A0
:1001C0004FEA3414A4F10104AC4201D300F032F838
:1001D00013F0010F18BFFB1A43F0010300F001F800
:1001E000DBE71847FC5A00001C5B0000103A24BFF4
:1001F00078C878C1FAD8520724BF30C830C144BF8C
:1002000004680C6070470000704700000023002461
:1002100000250026103A28BF78C1FBD8520728BF16
:1002200030C148BF0B6070471FB505F070FC1FBDA3
:1002300010B510BD00F0E4F81146FFF7F5FF03F02C
:10024000BDFD00F002F903B4FFF7F2FF03BC00F0BC
:1002500005F900000948804709480047FEE7FEE726
:10026000FEE7FEE7FEE7FEE7FEE7FEE7FEE7FEE766
:1002700004480549054A064B70470000412D000817
:1002800089010008F8010020F8070020F803002089
:10029000F803002053EA020C00F069802DE9F04BCE
:1002A0004FF00006002B1FBFB3FA83F503FA05F4E5
:1002B00024FA05F65E4012BF1643B2FA82F502FA3E
:1002C00005F4C5F120051EBF22FA05FC44EA0C0422
:1002D000203556EA044C4FEA144418BF641C4FF012
:1002E00000084FF00009904271EB030C39D300294C
:1002F00019BFB1FA81F701FA07F6B0FA80F700FAF0
:1003000007F6C7F120071EBF20FA07FC46EA0C06D5
:100310002037B6FBF4FCA7EB0507103F07F01F0BD7
:10032000CBF120062CFA06F60CFA0BFB44BFB346C1
:100330000026202FA4BF5E464FF0000B5BEA060CA0
:1003400008BF4FF0010B19EB0B0948EB0608ABFB9C
:10035000027C06FB02CC0BFB03CCC01B71EB0C0137
:10036000C1E70B46024641464846BDE8F08B13B54F
:10037000084318BF4FF0FF300146AFF30080BDE8DF
:100380001C4070474FF0000200B513469446964655
:10039000203922BFA0E80C50A0E80C50B1F1200198
:1003A000BFF4F7AF090728BFA0E80C5048BF0CC046
:1003B0005DF804EB890028BF40F8042B08BF7047A4
:1003C00048BF20F8022B11F0804F18BF00F8012B16
:1003D000704770477047704710B500F009F8006823
:1003E00010BD10B5044600F003F8046010BD000015
:1003F000004870471800002000487047180000208F
:100400007546FFF7F9FFAE4605006946534620F0F2
:100410000700854618B020B5FFF72AFFBDE8204049
:100420004FF000064FF000074FF000084FF0000BB0
:10043000AC46ACE8C009ACE8C009ACE8C009ACE81F
:10044000C00921F007018D46704710B50446AFF38F
:1004500000802046BDE81040FFF7F5BE0149182096
:10046000ABBEFEE72600020070470000FEE700007A
:100470007047000072B600BFFEE70000B0B504464A
:1004800000F0E6F8054640F20C00C2F200000078E9
:10049000611C18BF044400BF00F0DAF8401BA04202
:1004A000FAD3B0BD2DE9F04F83B000F1200200F186
:1004B0003E4741F60045009207F1FF77C4F202057E
:1004C00008224FEAB726A84208BF072200254FF0AE
:1004D00000084FF00009072E38BF4FEAB7220192FB
:1004E0000AE000BF09F1010908F10208B9F1100F93
:1004F00005F1040500F0A2800F68012202FA09FE4E
:1005000017EA0E0AEED0D1F804C003220CF003075C
:100510007E1E02FA08F4012E6FEA040B12D88468DA
:10052000CE6804EA0B0406FA08F634438460446893
:1005300024EA0E06CCF3001404FA09F426434660BC
:1005400004E000BF032F01D103271EE0C6688C68BA
:1005500006EA0B0604FA08F42643022FC66014D1FB
:100560006FF00302009E02EA590756F807C005F033
:100570001C040F220B69A2402CEA0202A3401A437A
:10058000F251D1F804C00CF00307026807FA08F32F
:1005900002EA0B021A431CF4403F0260A2D0002280
:1005A00043F644030292C4F202031A6843F600447D
:1005B00042F480421A601A68C4F2010402F48042D4
:1005C0000292029A29F003024FF6084C2244CFF619
:1005D000FF7C52F80C3005F00C070F26BE40B343E9
:1005E000019E06FA07F73B4342F80C30A2684B68BD
:1005F00042EA0A0743F60C4CDE0258BF22EA0A0719
:10060000A760C4F2010CDCF800209E0242EA0A074F
:1006100058BF22EA0A07CCF8007062689E0342EADB
:100620000A0758BF22EA0A0767602268DB0342EA2A
:100630000A0758BF22EA0A07276053E703B0BDE85C
:10064000F08F0000002A08BF090481617047000094
:1006500040F2F010C2F2000000687047002804BFAA
:1006600001207047F0B581B0044690F83D0028B9EC
:10067000002084F83C00204600F07CFA242084F816
:100680003D002068016821F001010160016841F42A
:1006900000410160016821F40041016000F02EFC7E
:1006A000636848F2A16CC0F2010C40F60011C0F280
:1006B0003D0163453CBF48F28041C0F21E018842C3
:1006C00002D2012001B0F0BD4DF68361C4F21B31AE
:1006D000A0FB01122168970CD1F804E04FF4967644
:1006E0002EF03F0545EA92454D60774348F63816AF
:1006F0000D6AC0F24106A7FB067625F03F07634569
:1007000038BF960C721C3A430A62CA6948F2A06666
:100710004CF6FF77C0F20106B34222EA07020BD87B
:1007200001385B00B0FBF3F001306FF31F30042899
:1007300098BF04201BE000BFA768013857B11927F4
:100740007B43B0FBF3F001306FF31F3070B100F565
:10075000804007E003EB4303B0FBF3F001306FF39D
:100760001F3018B100F5004001E000BF0120104328
:10077000C8610868D4E9072320F0C000104318437B
:100780000860886848F2FF3204F10C0790438CCF70
:1007900018431043A6698860C86820F0FF003843FA
:1007A0003043C860086840F0010008600020202144
:1007B000206484F83D10206384F83E0001B0F0BD51
:1007C0002DE9F04784B0994616460F460446FFF7D8
:1007D0003FFF94F83D10202927D10546206800BF2F
:1007E000816989071CD5FFF733FF411B20681A294F
:1007F000F6D381698907F3D500202021206384F88E
:100800003D1084F83E00206C04F13C0A40F02000CA
:100810002064022000218AF8001004B0BDE8F087AF
:10082000A2461AF83C1F012904D1022004B0BDE8F9
:10083000F08700BF01228AF800200368DDE90D1867
:100840000C9ADB0703D1036843F0010303600368DC
:1008500023F400630360222084F83D00402084F8E4
:100860003E000020206462626185608D39462085EB
:100870000020CFF6FF70E062204632464B46CDE9BD
:10088000008501F09DFC18B1012004B0BDE8F0879F
:10089000208D08B3022813D0012835D121680A68B9
:1008A00022F480620A60002203924A6903928A69F4
:1008B0000392039A0A6842F400720A602CE000BFB7
:1008C00021680A6822F480620A600A6842F40062C1
:1008D0000A60002203921AE0002003902068416918
:1008E0000391816903910399016841F400710160EA
:1008F000202084F83D00002084F83E0000218AF882
:10090000001004B0BDE8F0870021039121684A6916
:1009100003928969039103990427C0F201070CE04F
:1009200010690870606A218D01306062481E208560
:10093000618D013961850104DAD080B203280FD8B6
:1009400002284AD001282DD1204641462A4601F0EE
:10095000D5FE002898D12068616A0069E1E700BFF0
:10096000204641462A4601F0C9FE00287FF48CAF9C
:100970002068616A00690870606A2268411C208DE5
:10098000616201382085638D013B638553695B0794
:10099000D1D580B20328C3D1106820F480601060E4
:1009A000BEE700BF2046394600224346009501F0CD
:1009B00053FD00287FF468AF2068616A026822F462
:1009C0008062026000690870606A218D0130606297
:1009D000481E2085608D01386085204639460022FA
:1009E0004346009501F038FD00287FF44DAF2068A4
:1009F000616A026842F40072026000690870606A0D
:100A00002268411C6162218D01392185618D013986
:100A100061851169417085E72DE9F04383B09946FE
:100A200016460F460446FFF713FE94F83D102029A2
:100A300024D10546206800BF816989071AD5FFF7D0
:100A400007FE411B20681A29F6D381698907F3D56F
:100A500000202021206384F83D1084F83E00216CA2
:100A600041F02001216484F83C00022003B0BDE87D
:100A7000F08300BF94F83C10012903D1022003B099
:100A8000BDE8F083012284F83C200368DDE90B18FF
:100A90000A9ADB0703D1036843F00103036003688C
:100AA00023F400630360212084F83D00402084F893
:100AB0003E000020206462626185608D3946208599
:100AC0000020CFF6FF70E062204632464B46CDE96B
:100AD000008501F0FFFB18B1012003B0BDE8F083F1
:100AE000208D98B9204641462A4601F057FC88B32C
:100AF000206C0428F0D12068016841F40071016085
:100B0000012003B0BDE8F0830004EBD0204641464D
:100B10002A4601F03BFE0028EAD1616A22680846B5
:100B200010F8013B1361238D6062581E2085678D8C
:100B3000013F678557697F07E6D50704E4D0487809
:100B40001061881C6062981E2085618D0139618565
:100B5000DAE700BF2068016841F4007101602020DD
:100B600084F83D00002084F83E0084F83C0003B087
:100B7000BDE8F0832DE9F04786B045F600460068F1
:100B8000C4F200060025B0420595CDE90355029553
:100B9000019503D006B0BDE8F08700BF43F63007EB
:100BA0000095C4F20207386801AC40F004003860D8
:100BB00038684FF0120800F004000090009800958B
:100BC00038684FF0030940F00100386038684FF092
:100BD000040A00F00100009000984FF400700190AA
:100BE00006F5D6302146CDE90285CDF81090CDF836
:100BF00014A0FFF757FC4FF48070CDE9010803A85B
:100C000080E8200606F5D2302146FFF74BFC009520
:100C1000386940F400003861386900F40000009041
:100C2000009806B0BDE8F08740F20C0040F2F011E9
:100C3000C2F20000C2F2000100780A6810440860A5
:100C40007047000080B543F60040C4F2020001681E
:100C500041F400710160016841F480610160016844
:100C600041F480710160032000F086F80F2000F04D
:100C700005F800F027F8002080BD000070B540F2B4
:100C80000C06C2F2000640F214013278C2F20001F2
:100C90004FF47A730968B3FBF2F20446B1FBF2F148
:100CA000084600F0D9FF0F2C4FF0010508D838B9DD
:100CB0004FF0FF3021460022002500F031F874602B
:100CC000284670BD82B0002043F640010190C4F276
:100CD00002014A6842F480424A604A6802F4804253
:100CE0000192019A0090086840F0805008600868FE
:100CF00000F080500090009802B07047002848BF74
:100D0000704700F01F01012202FA01F11C2202EAE1
:100D1000D0004EF20012CEF2000281507047000067
:100D200010B54EF60C5CCEF2000CDCF80030C3F3CC
:100D3000022E8EF00704042C28BF0424BEF1030306
:100D40004FF0FF3E0EFA04F438BF0023A143994050
:100D50000EFA03F39A43114300F00F0200F16043CF
:100D60000901043A03F564436244002848BF02F1D4
:100D70000C03197010BD00004EF60C51CEF20001AC
:100D80000A684FF6FF031A4060F30A2242F08060BF
:100D900040F0FD7008607047002804BF01207047D4
:100DA0002DE9F04143F60808C4F202080446D8F8D9
:100DB000F8030D4600F00700814207D988F8F85380
:100DC000D8F8F80300F00700A84277D1206881071F
:100DD00017D5410705D5D8F8001041F4E051C8F8FF
:100DE0000010010705D5D8F8001041F46041C8F89B
:100DF0000010D8F80010A26821F0F0011143C8F8E3
:100E00000010C00740D1D8F8F80300F00700854271
:100E100007D288F8F853D8F8F80300F00700A84282
:100E20004CD12068410707D5D8F80010E26821F4BA
:100E3000E0511143C8F80010000708D5D8F80000A9
:100E4000216920F4604040EAC100C8F8000000F0C9
:100E500069F8D8F8001045F6C842C1F30311C0F68E
:100E60000002515C40F2140220FA01F140F210003D
:100E7000C2F200000068C2F200021160FFF7FEFE3D
:100E80000020BDE8F08100BF6068811E022907D202
:100E900058F8081C89015CBF0120BDE8F08111E011
:100EA000012807D158F8081C89035CBF0120BDE860
:100EB000F08107E058F8081C890703D40120BDE839
:100EC000F08100BFD8F8001021F003010843C8F8F2
:100ED0000000FFF7BDFB064641F28837D8F8000056
:100EE000616800F00C00B0EB810F8CD0FFF7B0FB15
:100EF000801BB842F2D90320BDE8F08140F2140013
:100F000043F60801C2F20000C4F202010068096859
:100F100045F6D842C1F38221C0F60002515CC840B8
:100F20007047000010B543F60404C4F2020461687F
:100F3000C1F3810142F20040C0F2F400DFE801F0A9
:100F400002040A0210BD00BF41F60030C0F2B70033
:100F500010BD00BF206821682368490241F60031B6
:100F6000C0F2B70100F03F02C3F388105CBF42F249
:100F70000041C0F2F401A1FB00010023FFF78AF950
:100F800021680222C1F3014102EB4101B0FBF1F003
:100F900010BD0000002804BF012070472DE9F0417A
:100FA00082B00446007843F60006C007C4F2020689
:100FB0000CD0B06800F00C00042840F0818030684C
:100FC000800303D56068002800F0688120788007DE
:100FD0001BD5B06810F00C0F09D0B06800F00C0001
:100FE000082840F087807068400200F183803068F4
:100FF000800703D5E068012840F0508130682169FE
:1010000020F0F80040EAC10030602078000713D4D7
:10101000207840072AD4A569002D00F03A81B068F5
:1010200000F00C00082840F0A580012D40F00E8152
:10103000012002B0BDE8F0816069002800F08280E4
:101040000020C4F247200121C0F8801EFFF700FBFA
:10105000054600BF706F8007DAD4FFF7F9FA401B2E
:101060000228F7D9032002B0BDE8F081306C5FEAB6
:10107000C0080AD400200190306C40F080503064E9
:10108000306C00F080500190019847F20007C4F2E4
:1010900000073868C00547D4386840F4807038606D
:1010A000FFF7D6FA054600BF3868C0053CD4FFF705
:1010B000CFFA401B0228F7D9032002B0BDE8F08127
:1010C000B06800F00C00082803D1706840023FF5BA
:1010D00076AF61683068B1F5803F07D0B1F5A02FD9
:1010E00040F09A8040F480203060306840F48030D6
:1010F00030609AE0E068002840F20000C4F2472027
:101100005CD001210160FFF7A3FA05463068800733
:101110003FF574AFFFF79CFA401B0228F6D9032075
:1011200002B0BDE8F08100BFA168306F012905D091
:10113000052955D140F004003067306F40F00100C0
:10114000306756E00020C4F247200021C0F8801E1E
:10115000FFF77EFA054600BF706F80077FF558AF36
:10116000FFF776FA401B0228F6D9032002B0BDE84B
:10117000F08100BF0027C4F2472700203866FFF740
:1011800067FA022D05460DD13068800140F18A8052
:10119000FFF75EFA401B02284FF00300F4D902B0BB
:1011A000BDE8F0813068800173D5FFF751FA401B2C
:1011B00002284FF00300F5D9F1E700BF00210160DC
:1011C000FFF746FA054600BF306880077FF51DAF80
:1011D000FFF73EFA401B02284FF00300F4D9DEE788
:1011E00020F001003067306F002920F004003067E4
:1011F0007AD0FFF72DFA054641F28837306F800725
:1012000000F18480FFF724FA401BB842F6D903208E
:1012100002B0BDE8F08100BF20F48030306030685B
:10122000002920F4802030607AD0FFF711FA0546BB
:10123000306880033FF5CAAEFFF70AFA401B642806
:10124000F6D9032002B0BDE8F08100BF7068E16903
:1012500000F480028A4221D1216A00F03F028A42D2
:101260001CD147F6C071626A0140B1EB821F15D1F3
:10127000A16A4FF6FF73C903994300F44032A1F508
:1012800080318A420AD1E16A00F07060B0EB016FF0
:1012900004D1002002B0BDE8F08100BF012002B0FF
:1012A000BDE8F08104F11C052FCD084340EA82100F
:1012B000D9034FF6FF729143A1F5803140EA0560F2
:1012C0000843706001203866FFF7C2F9044600BF8A
:1012D00030688001DDD4FFF7BBF9001B02284FF016
:1012E0000300F5D95BE700BFFFF7B2F9054641F20D
:1012F000883700BF306F800708D5FFF7A9F9401B7A
:10130000B8424FF00300F5D949E700BFB8F1000F2C
:101310003FF581AE306C20F0805030647BE600BF3A
:10132000FFF796F9054600BF306880037FF54EAEA3
:10133000FFF78EF9401B64284FF00300F4D92EE725
:1013400090F851007047000070B528B1416A29B18A
:1013500000210161142106E0012070BD4168B1F552
:10136000827F02D01C21002242500026866290F823
:10137000511029B980F85060054600F03DF8284624
:10138000022180F8511090E82E0002F482720C685D
:1013900003F4044324F040040C601A4405F4006391
:1013A00005691A4405F0020345691A4405F0010372
:1013B0008569C4691A4405F400731A4404F03803BB
:1013C000046A1A4404F08003846A1A4304F4005344
:1013D0001A430A60436A042202EA154203F010032A
:1013E0001A444A60CA6922F40062CA610121466552
:1013F00080F85110304670BD2DE9F04387B043F2BC
:1014000000050068C4F201050026A8420696CDE951
:1014100004660396029603D007B0BDE8F08300BFD0
:1014200043F630000196C4F20200416902AC41F477
:101430008051416141694FF0020801F480510191EE
:101440000199019601684FF0030941F00201016022
:101450000168052701F002010191019901960168D7
:1014600041F0010101600068214600F00100019097
:1014700001981820029005F55440CDE90386CDF877
:1014800014900697FFF70EF88020CDE9020805F5C5
:1014900050402146CDE904690697FFF703F807B0ED
:1014A000BDE8F0832DE9F04182B0044690F8510088
:1014B00001281AD100294FF0010018BF002A03D1DA
:1014C00002B0BDE8F08100BF60681D461746B0F568
:1014D000827F03D1A068002800F0BC800E46FFF791
:1014E000B7F894F85010012904D1022002B0BDE8E9
:1014F000F08100BF8046012084F8500004200021C4
:1015000084F851006165A663A787E7872163A186F8
:10151000E186A2682068B2F5004F2164616437D08B
:10152000016849063FD5E168E08F002943D00028D3
:101530007AD0681C0BD11AE0C068A16B21F8020BAD
:10154000A163E08F0138E087E08F00286CD020682D
:101550008168C907F0D1FFF77BF8A0EB0800A8422B
:10156000F2D342E0FFF774F8E08F00285CD02068E7
:101570008168C907F6D0C068A16B21F8020BA1638E
:10158000E08F0138E087E08F0028F0D14CE000BF09
:10159000016821F040010160016821F4804101608F
:1015A00001684906BFD4016841F040010160E1686B
:1015B000E08F0029BBD1B8B3681C0CD124E000BF78
:1015C000007BA16B0870A06B0130A063E08F013835
:1015D000E087E08F40B320688168C907F0D1FFF74A
:1015E00037F8A0EB0800A842F3D3012084F851009B
:1015F000002084F85000032002B0BDE8F08100BF55
:10160000FFF726F8E08F78B120688168C907F7D026
:10161000007BA16B0870A06B0130A063E08F0138E4
:10162000E087E08F0028EFD16068B0F5827F0ED1AF
:10163000A068B0F5004F02D0B0F5806F16D12168D8
:10164000B0F5806F0A6822F040020A600ED1204691
:1016500001210DE0042084F8510020460A463B4653
:10166000009500F059F902B0BDE8F08120468021D4
:1016700000222B46CDF8008001F076FA28B1606D8B
:1016800040F02000606520206065012084F8510052
:10169000002084F85000606D002818BF012002B0BF
:1016A000BDE8F0812DE9F04184B01D4616460F4695
:1016B0000446FEF7CDFF94F8511001290ED1804663
:1016C000002F4FF0010018BF002E03D104B0BDE879
:1016D000F08100BF94F85000012803D1022004B02B
:1016E000BDE8F081012084F850000320002184F837
:1016F000510061652763A686E686A163A187E1871D
:10170000A0682164B0F5004F2068616407D10168CA
:1017100021F040010160016841F4804101600168ED
:10172000490603D4016841F0400101606168731EFD
:10173000E268B1FA81F1B3FA83F349095B09B2F5C2
:10174000006F41EA030139D131B137F8021BC160A2
:101750002763E08E0138E086E08E002870D0681C98
:101760000BD11AE0216B31F8022BC2602163E08EAD
:101770000138E086E08E002862D020688168890701
:10178000F0D4FEF765FFA0EB0800A842F2D338E0E2
:10179000FEF75EFFE08E002852D02068816889073E
:1017A000F6D5216B31F8022BC2602163E08E01383F
:1017B000E086E08E0028F0D142E000BF39B13978F0
:1017C0000173206B01302063E08E0138E086E08EEB
:1017D000B0B3681C0BD123E0216B09780173206B37
:1017E00001302063E08E0138E086E08E40B320684F
:1017F00081688907F0D4FEF72BFFA0EB0800A84210
:10180000F3D3012084F85100002084F85000032015
:1018100004B0BDE8F08100BFFEF71AFFE08E78B19A
:10182000206881688907F7D5216B09780173206BDF
:1018300001302063E08E0138E086E08E0028EFD191
:101840002046022101222B46CDF8008001F08CF9C0
:10185000E0B1606D40F02000606520206065A06808
:1018600038B9002002902068C16802918068029017
:101870000298012084F85100002084F85000606D27
:10188000002818BF012004B0BDE8F08140F2140028
:10189000C2F20000006849F68171C1F25E61A0FBEE
:1018A0000101480D4FF47A71484303906068B0F528
:1018B000827F0BD12046802100222B46CDF800806C
:1018C00001F052F90028C4D1C9E700BF03980028ED
:1018D000C5D0039801380390206881680906BED5F9
:1018E00003990029BBD00399013903918168090646
:1018F000B5D503990029B2D00399013903918168C4
:101900000906ACD503990029A9D00399013903919F
:1019100080680006DAD4A2E72DE9F04383B01E46C2
:1019200015460F460446FEF793FE94F85110814683
:10193000012909D1002F4FF0010018BF002D0FD150
:1019400003B0BDE8F08300BF6068B0F5827F0DD1C1
:1019500004294FF00200F3D1A1680029EAD0EFE793
:10196000002EEDD094F85000012803D1022003B0DE
:10197000BDE8F083012084F8500094F85100002164
:1019800004281CBF052084F851006165A563E68723
:10199000A6872763E6862068A686216461640168BD
:1019A000490603D4016841F0400101606168731E7B
:1019B000E268B1FA81F1B3FA83F3DDF828804909CE
:1019C0005B09B2F5006F41EA030165D131B137F827
:1019D000021BC1602763E08E0138E086012518F103
:1019E000010032D102E000BFFEF732FEE08E18B9EE
:1019F000E08F002800F0B8802068816889070CD546
:101A0000E18E51B1012D08D1216B002531F8022B57
:101A1000C2602163E18E0139E1868168C907E3D0A4
:101A2000E18F0029E0D0C068A16B012521F8020BED
:101A3000A163E08F0138E087D6E700BFFEF708FE1C
:101A4000A0EB0900404580F0A580E08E18B9E08F3A
:101A5000002800F089802068816889070CD5E18E14
:101A600051B1012D08D1216B002531F8022BC26044
:101A70002163E18E0139E1868168C907DED0E18FFB
:101A80000029DBD0C068A16B012521F8020BA163FE
:101A9000E08F0138E087D1E739B139780173206BE5
:101AA00001302063E08E0138E086012518F1010045
:101AB00032D101E0FEF7CCFDE08E10B9E08F0028B6
:101AC00052D02068816889070ED5E18E61B1012D61
:101AD0000AD1216B002509780173216B206801313F
:101AE0002163E18E0139E1868168C907E2D0E18F87
:101AF0000029DFD0C068A16B01250870A06B013000
:101B0000A063E08F0138E087D4E700BFFEF7A0FDB7
:101B1000A0EB090040453DD2E08E08B9E08F18B334
:101B20002068816889070ED5E18E61B1012D0AD147
:101B3000216B002509780173216B20680131216335
:101B4000E18E0139E1868168C907DFD0E18F002984
:101B5000DCD0C068A16B01250870A06B0130A063C8
:101B6000E08F0138E087D1E7204602210122434679
:101B7000CDF8009000F0F8FFB0B1606D40F02000AB
:101B8000606520206065002084F85000012003B0CB
:101B9000BDE8F083012084F85100002084F8500053
:101BA000032003B0BDE8F08340F21400C2F200004D
:101BB000006849F68171C1F25E61A0FB0101480D28
:101BC0004FF47A71484302906068B0F5827F0BD180
:101BD0002046802100224346CDF8009000F0C4FF4B
:101BE0000028CAD121E000BF0298F0B10298013864
:101BF000029020688168090617D50299A9B1029957
:101C000001390291816809060FD5029969B10299DB
:101C1000013902918168090607D5029929B1029913
:101C20000139029180680006DED4A06838B900202E
:101C300001902068C168019180680190019801209D
:101C400084F85100002084F85000606D002818BF0F
:101C5000012003B0BDE8F083411E0020B0EB116FFE
:101C60001CBF012070474EF21002CEF200025160FC
:101C70004EF62351CEF20001F0230B700721906045
:101C800011607047704700007047000090F83C20DA
:101C9000012A4FF0020254D010B580F83D200268AE
:101CA000D2F804E0D2F808C00C682EF07003234389
:101CB00041F2FF74C4F20004A24253600EDC40F211
:101CC000FF73C4F200039A4216DCB2F1804F2BD0AE
:101CD00040F20043C4F2000324E000BF40F2FF33AF
:101CE000C4F201039A4213DC41F60003C4F200037C
:101CF0009A4219D0002313E040F60003C4F2000317
:101D00009A4211D040F60043C4F200030AE000BF3B
:101D100044F20003C4F201039A4205D040F20043AA
:101D2000C4F201039A4204D149682CF0800319439C
:101D300091600121002280F83D1080F83C20BDE830
:101D40001040104670470000002804BF0120704773
:101D500010B5044690F83D0028B9002084F83C00F6
:101D6000204600F01FF8022084F83D002068211D65
:101D700000F0F6FF012084F8460084F83E0084F865
:101D80003F0084F8400084F8410084F8420084F861
:101D9000430084F8440084F8450084F83D000020A6
:101DA00010BD000000680021C4F20101884218BF84
:101DB000704780B582B00020019043F64400C4F221
:101DC00002000168002241F0010101600068002169
:101DD00000F00100019001981920FEF7A1FF1920E1
:101DE00002B0BDE88040FEF789BF000090F83D10CA
:101DF00001291CBF01207047022180F83D100068B6
:101E000041F2FF72C168C4F20002904241F0010148
:101E1000C1600DDC40F2FF71C4F20001884215DCA4
:101E2000B0F1804F2AD040F20041C4F2000123E01B
:101E300040F2FF31C4F20101884213DC41F6000197
:101E4000C4F20001884219D0002113E040F60001DD
:101E5000C4F20001884211D040F60041C4F20001F2
:101E60000AE000BF44F20001C4F20101884205D03B
:101E700040F20041C4F20101884206D1816801F0BC
:101E80000701062904BF00207047016841F00101E5
:101E9000016000207047000090F83C20012A4FF0BC
:101EA00002026CD080B580F83D20D0F800C04FF61B
:101EB0007772DCF8083023EA0202CCF808200B68BD
:101EC0004F2B29DC1F2B45DD202B46D0302B44D057
:101ED000402B40F0AF80D1F804E0C968DCF8203036
:101EE000DCF8202022F00102CCF82020DCF81820B9
:101EF00022F0F00242EA011123F00A0242EA0E0245
:101F0000CCF81810CCF82020DCF8081041F047017C
:101F100021F0300128E000BF6F2B33DDB3F5005F07
:101F200074D0B3F5805F21D0702B40F08380D1E96D
:101F300001E3C968DCF8082043EA0E0322F47F427B
:101F400043EA01211143CCF80810DCF8081041F0F5
:101F5000770109E00BB1102B6CD1DCF8081021F0EF
:101F60007001194341F00701CCF80810002201214B
:101F700080F83D10002180F83C10BDE880401046FC
:101F8000704700BF502B21D0602B53D1D1F804E013
:101F9000C968DCF82030DCF8202022F01002CCF8F0
:101FA0002020DCF8182022F4704242EA013123F0AC
:101FB000A00242EA0E12CCF81810CCF82020DCF86F
:101FC000081041F0670121F01001CDE7D1F804E0DD
:101FD000C968DCF82030DCF8202022F00102CCF8BF
:101FE0002020DCF8182022F0F00242EA011123F050
:101FF0000A0242EA0E02CCF81810CCF82020DCF8D5
:10200000081041F0570121F02001ADE7D1E901E3CB
:10201000C968DCF8082043EA0E0322F47F4243EA51
:1020200001211143CCF80810DCF8081041F480417C
:102030009AE700BF01229AE77047000070B5044696
:102040000068C5680669B10716D515F0020113D0FE
:102050006FF002010161012121778069800703D0BF
:102060002046FFF7E9FF05E0204600F08FF8204604
:1020700000F08EF800202077700719D515F00400C5
:1020800016D020686FF00401016102212177806978
:1020900010F4407F04D02046FFF7CEFF06E000BFDB
:1020A000204600F073F8204600F072F800202077F8
:1020B000300717D515F0080014D020686FF008011C
:1020C000016104212177C069800703D02046FFF712
:1020D000B3FF05E0204600F059F8204600F058F81C
:1020E00000202077F00619D515F0100016D02068D2
:1020F0006FF01001016108212177C06910F4407F61
:1021000004D02046FFF798FF06E000BF204600F00D
:102110003DF8204600F03CF800202077F00718BF7B
:1021200015F0010002D1300609D412E020686FF0EA
:1021300001010161204600F02DF8300609D515F0A7
:10214000800006D020686FF0800101612046FFF713
:1021500099FD700609D515F0400006D020686FF093
:1021600040010161204600F027F8B00658BF70BD5D
:1021700015F0200008D021686FF0200220460A6187
:10218000BDE87040FFF780BD70BD000070470000E3
:102190007047000000680021C4F20101884218BFA6
:1021A000704740F284009FED030AC2F2000001F084
:1021B0002BB800BF6F12833A70470000FEE70000A3
:1021C0002DE9F04782B0044600689A460B9D0A9EAE
:1021D0000368914643F48062026002680F4642F44D
:1021E0008071016020464FF00111002233460095B6
:1021F00000F032F950B120680068C00544BF4FF4C8
:1022000000702064032002B0BDE8F08740F20208AD
:102210002068C0F2010807F0FE070761204641462A
:1022200032462B4600F0FEF920B1012002B0BDE895
:10223000F08700BF0020019020682A464169019183
:102240008069314601900198204600F09FFAB0B9AC
:102250002068BAF1010F09D04FEA19210161204627
:1022600031462A4600F092FA48B920685FFA89F1AF
:102270000161204631462A4600F088FA60B1206CA0
:102280000428D2D12068016841F400710160012066
:1022900002B0BDE8F08700BF206800220168334625
:1022A00041F48071016020464FF00111009500F06B
:1022B000D3F800289FD147F0010C276820464146FB
:1022C00032462B46C7F810C002B0BDE8F04700F018
:1022D000A9B900002DE9F04383B0044600680F4619
:1022E00001680A9D0B9E41F48071994690460160F9
:1022F00020464FF0011100222B46009600F0ACF86A
:1023000050B120680068C00544BF4FF400702064DD
:10231000032003B0BDE8F083206807F0FE010161EF
:102320000221C0F2010120462A46334600F07AF924
:1023300020B1012003B0BDE8F08300BF002002906F
:1023400020683246416902918069294602900298CC
:10235000204600F01BFA58B1206C0428E9D120680F
:10236000016841F400710160012003B0BDE8F08311
:102370002068B9F1010F0AD04FEA18210161204607
:102380002946324600F002FA0028E5D120685FFABB
:1023900088F10161002003B0BDE8F08370B50368E7
:1023A000044653F8140F400711D40E46481C29D098
:1023B00086BB00BF1868400527D4FEF749F923689B
:1023C00053F8140F400737D518684007F2D500209E
:1023D00070BD00BF18684007F9D41868400514D4D0
:1023E00018684007F3D4186840050ED418684007F1
:1023F000EDD41868400508D4186840074FF0000075
:1024000048BF70BD18684005E4D56FF4806018605F
:10241000042012E0154603E053F8140F4007D6D409
:1024200018684005F1D4FEF713F9401B2368B04249
:10243000F2D958694007EFD42020002120222163DF
:1024400084F83D2084F83E10226C10432064012063
:1024500084F83C1070BD00002DE9F041054600688D
:102460001E46144601F47F0201338FB242D0DDF8DC
:102470001880B2F5803F40F0878040693840C01B2B
:10248000B0FA80F04009844240F0C8804EB924E0A0
:1024900040693840C01BB0FA80F04009844240F0E7
:1024A000BD80FEF7D5F8A0EB08012868B142EFD94E
:1024B00041693940C91BB1FA81F149098C42E7D120
:1024C0009BE000BF40693840C01BB0FA80F0400973
:1024D00084424FF0000040F0A280FEF7B9F828686F
:1024E00041693940C91BB1FA81F149098C42E9D1EE
:1024F00083E000BFB2F5803F24D100BF416939407D
:10250000C91BB1FA81F149098C4240F087804169C9
:102510003940C91BB1FA81F149098C4240F07E80F3
:1025200041693940C91BB1FA81F149098C4275D121
:1025300041693940C91BB1FA81F149098C42DDD0AA
:102540006CE000BF81693940C91BB1FA81F14909CA
:102550008C4263D181693940C91BB1FA81F14909C3
:102560008C425BD181693940C91BB1FA81F14909BB
:102570008C4253D181693940C91BB1FA81F14909B3
:102580008C42DFD04AE000BF80693840C01BB0FAFF
:1025900080F04009844241D146B923E08069384047
:1025A000C01BB0FA80F04009844237D1FEF750F8E2
:1025B000A0EB08012868B142F0D981693940C91BF4
:1025C000B1FA81F149098C42E8D116E080693840BE
:1025D000C01BB0FA80F0400984424FF0000018BFE1
:1025E000BDE8F081FEF734F8286881693940C91BDD
:1025F000B1FA81F149098C42E8D1002020212863F9
:1026000085F83D1085F83E00296C41F020012964D1
:1026100085F83C000120BDE8F08100BF0020BDE846
:10262000F0810000F0B581B0044600681D464369A2
:102630008FB203EA0701B94202D1002001B0F0BD18
:102640004169164601323CD0490512D47EB300BF21
:10265000FDF7FEFF411B2068B14203D941693940B3
:10266000B9422BD141693940B942E6D041694905A7
:10267000EED5016841F4007101606FF48061416141
:10268000042000212022216384F83D2084F83E109C
:10269000226C1043206484F83C10012001B0F0BD8E
:1026A00041693940B942C8D041694905E1D4FDF7D3
:1026B000CFFF206841693940B942F1D02020E0E7DE
:1026C00041694905D5D441693940B942B5D041691C
:1026D0004905CED441693940B942AED04169490576
:1026E000C7D441693940B942A7D041694905C0D42E
:1026F00041693940B942E3D19FE7000070B5044613
:102700000068154650F8143F5A063DD40E4629B9C4
:1027100026E000BF50F8141F490635D40168C906E9
:1027200021D4FDF795FF411B2068B142F2D94169E0
:102730004906EFD400202021206384F83D1084F85E
:102740003E00206C40F0200018E000BFFDF780FF45
:10275000206850F8141F4906ECD50168490613D4C7
:102760000168C906F2D56FF0100101600020202138
:10277000206384F83D1084F83E00206C2064002023
:1027800084F83C00012070BD002070BD70B5036866
:10279000044653F8140F000611D40E46481C29D0E5
:1027A00086BB00BF1868400527D4FDF751FF23689A
:1027B00053F8140F000637D518680006F2D500202C
:1027C00070BD00BF18680006F9D41868400514D41D
:1027D00018680006F3D4186840050ED4186800067F
:1027E000EDD41868400508D4186800064FF00000C2
:1027F00048BF70BD18684005E4D56FF4806018606C
:10280000042012E0154603E053F8140F0006D6D456
:1028100018684005F1D4FDF71BFF401B2368B04248
:10282000F2D958690006EFD420200021202221632C
:1028300084F83D2084F83E10226C1043206401206F
:1028400084F83C1070BD000070B586B006460020CC
:102850000D46ADF814000490062004A9CDE900103F
:1028600040F2FC0014464FF47A7CC2F200001C21B6
:1028700003220123CDF808C0FDF7A2FFBDF9100027
:102880009FED0F1A00EE100ABDF91210B8EEC00A43
:1028900020EE010A86ED000A00EE101ABDF91420A0
:1028A000B8EEC00A20EE010A85ED000A00EE102AFB
:1028B000B8EEC00A20EE010A84ED000A06B070BD31
:1028C0009A99993EF0B585B041F60004C4F202042D
:1028D0002046402100220026FDF7B4FE3220FDF7FD
:1028E000CDFD2046402101220125FDF7ABFE32201F
:1028F000FDF7C4FD40F2FC040DF11100C2F200042A
:102900008DF811600A268DE8610020461C210B22FB
:1029100001230B27FEF780F812208DF812000DF12D
:102920001200CDE9000520461C2141220123029618
:10293000FEF772F80DF11300CDE9000520461C21C9
:102940000A2201238DF813700296FEF765F805B090
:10295000F0BD00002DE9F04786B0002443F63000BA
:102960000594CDE90344CDE901440094C4F202008A
:10297000016840F2000841F0020101600168C4F200
:10298000020801F00201009100990094016808F525
:10299000C05641F0010101600168012201F001010E
:1029A00000910099009401684FF0400941F0040142
:1029B00001600168012701F0040100910099009471
:1029C000016841F080010160016801F0800100911F
:1029D00000990094016841F04001016000684021C5
:1029E00000F04000009000983046FDF72BFE404676
:1029F000102101224FF0100AFDF724FE08F5806532
:102A0000284601210122FDF71DFECDE901970DF1B8
:102A1000040930464946CDE90377FDF743FD032617
:102A200040464946CDE901A703940496FDF73AFDD7
:102A300028464946CDE90177CDE90346FDF732FD49
:102A400006B0BDE8F087000080B540F2FC0045F616
:102A50000041C2F20000C4F2000141F680220023CE
:102A60004FF4804CC0F2060280E80E00C0E9033C3F
:102A7000C0E90533C0E90733FDF7F0FD002808BFC2
:102A800080BDBDE88040FDF7F5BC0000B0B540F268
:102A9000501043F20001C2F20000C4F201014FF4F1
:102AA0008272002380E80E0000F10C014FF0020C4E
:102AB0004FF0010E4FF40074382581E808500A21C8
:102AC000C0E90645C0E90833C0E90A31FEF73CFC1D
:102AD000002808BFB0BDBDE8B040FDF7CBBC00008A
:102AE00080B586B040F2A81000220021C2F200009A
:102AF000C4F20102A8234FF47A7C4FF0800E0591B6
:102B0000CDE90311CDE90011C0E90023C0E9021CA1
:102B1000C0E90411C0F818E0FFF716F9002818BF43
:102B2000FDF7A8FC4FF48050029040F2A810C2F2CA
:102B3000000002A9FFF7B0F9002818BFFDF79AFCC2
:102B400040F2A810C2F200006946FFF79FF8002883
:102B500018BFFDF78FFC06B080BD0000FEE7000047
:102B6000FEE70000704700002DE9F04381B0089CAB
:102B7000984615460E468146FDF76AFD201A00EB81
:102B80000804FDF765FD40F21401C2F20001096876
:102B9000C1F3CB3161430091D9F800108A6832400B
:102BA000921BB2FA82F25209954203D1002001B081
:102BB000BDE8F083074618F101000ED130E000BFF8
:102BC000009801380090D9F8000080683040801BE0
:102BD000B0FA80F040098542E8D0FDF739FDC01B0E
:102BE000A04227D200980028EAD10024EBE700BFDA
:102BF00088683040801BB0FA80F040098542D5D00B
:102C000088683040801BB0FA80F040098542CDD002
:102C100088683040801BB0FA80F040098542C5D0FA
:102C200088683040801BB0FA80F040098542DFD1CF
:102C3000BCE700BFD9E900014268B1F5827F22F00C
:102C4000E00242600BD1D9F80810B1F5004F02D074
:102C5000B1F5806F03D1016821F040010160D9F81E
:102C60002810B1F5005F07D1016821F4005101601F
:102C7000016841F400510160012089F851000020F1
:102C800089F85000032001B0BDE8F08370470000D0
:102C9000FDF7CABF70B592B006AC20463021FDF7F3
:102CA00071FB002543F640000595CDE90355CDE9BC
:102CB00001550095C4F202000168022641F08051DE
:102CC0000160006800F080500090009847F200001A
:102CD0000095C4F20000016841F480410160006881
:102CE00000F4804000900098012006904FF480305E
:102CF00007904FF480000D9006200E90A820CDE99B
:102D00000F060420119020460C96FEF743F918B1E7
:102D100072B600BFFEE700BF0F20CDE901064FF4F9
:102D2000A05004904FF48050059001A80521039510
:102D3000FEF732F810B172B6FEE700BF12B070BDF8
:102D40004EF68850CEF20000016841F47001016037
:102D50007047000040F2A810C2F20000FFF76EB901
:102D6000B0B540F6FF3E0568C4F2000E40F2004CDC
:102D70007045C4F2010C25DCB0F1804F2FD040F239
:102D80000043C4F20003984229D040F60003C4F285
:102D90000003984223D041F6FF73C4F20003984227
:102DA00028DC70453ADCB0F1804F5BD040F2004344
:102DB000C4F20003984255D040F60003C4F2000369
:102DC0004EE000BF40F60043C4F20003984206D034
:102DD000604504D00023C4F201039842DBD14B6864
:102DE00025F0700243EA020541F6FF73C4F20003C6
:102DF0009842D6DD43F6FF73C4F2010398421FDC0C
:102E000042F20003C4F2000398422BD00023C4F224
:102E10000103984226D0604524D028E040F60043C4
:102E2000C4F2000398421DD041F60003C4F200032F
:102E3000984217D041F60043C4F2000310E000BFEF
:102E400044F20003C4F2010398420BD044F600039D
:102E5000C4F20103984205D044F20043C4F20103D6
:102E6000984204D1CB6825F4407243EA02050A680F
:102E70008C684B69C46240F480648262644504BF1C
:102E800009690163026825F0800142F004021943D8
:102E90000260012242610160B0BD0000FEE7000057
:102EA00070B52DED048B044640F20000C2F2000024
:102EB00090ED000A9FED481A9FED482A30EE013A46
:102EC00033EE020A83EE004A90ED010A90ED025AB9
:102ED00030EE016A36EE022A86EE027A35EE010AFB
:102EE00094ED041A94ED0F2A94ED035A31EE421A30
:102EF00094ED182AD4ED100A94F85C1024EE011A0F
:102F000031EE021AB7EE002A32EE444A23EE043ABA
:102F100080ED003A35EE603A94ED194A27EE033A17
:102F200033EE049A32EE473A26EE033A012980ED59
:102F3000020A84ED181A84ED199A80ED013A1BD12A
:102F40009FED273A94ED114A30EE033A80EE033AB2
:102F500094ED165A94ED1A6A35EE444A23EE044A6B
:102F600032EE432A34EE068A20EE020A84ED1A8AF3
:102F700080ED020A04E000BF94ED118A84ED1A8A04
:102F800011EE100A02F028FD9FED110B55EC106BAD
:102F900032462B4602F0F2FA01F098FFE06619EE95
:102FA000100A02F019FD32462B4602F0E7FA01F052
:102FB0008DFF206718EE100A02F00EFD32462B46F8
:102FC00002F0DCFA01F082FF6067BDEC048B70BD9B
:102FD000F8C1631ADCA54C40ACC527370AD7233C9F
:102FE000CDCC4C3D000000002DE9F04381B02DED2B
:102FF000108B84B0804600680D46D8E9011208F1B4
:103000000C0307C308F1300003A902AA01ABB0EE1C
:10301000408A00F0ADFD9DED030A98ED061A98ED8B
:10302000083A30EE41FA9DED010A95ED009A98EDCF
:10303000072A9DED024A95ED01AA70EE438AB0EE93
:10304000490A34EE42EA01F03BFCB0EE40BAB0EE81
:103050004A0A01F0FDFC6BEE009AB0EE490A01F05D
:1030600045F8B0EE40BAB0EE4A0A01F0F1FC6BEE62
:1030700000AAB0EE490A01F039F8B0EE40BAB0EE5D
:10308000490A01F01DFCB0EE40CAB0EE490A01F059
:1030900017FCB0EE40DAB0EE4A0A01F027F8CDEEA8
:1030A00000BAB0EE490A01F021F8B0EE40DAB0EE15
:1030B0004A0A01F01BF88DEE000A2EEE291A3FEEA7
:1030C000011A2AEEA82A32EE011A2EEE0B2A2CEE55
:1030D000283A32EE432A2EEE2B3A98ED044A88ED38
:1030E000001A88ED012A32EE042AB6EE004A20EEDC
:1030F000280A30EE030A98ED033A98ED055A31EEAE
:10310000031A21EE041A21EE081A88ED020A31EEA4
:10311000091A30EE050A88ED091A95ED021A20EE1B
:10312000040A22EE042A20EE080A22EE082A30EED3
:10313000019A32EE0A2A19EE100A88ED0A2A02F0E4
:103140004BFC9FED290B41EC180B56EC109B4A46AB
:10315000334602F08FFCC0B99FED250B57EC104BA6
:1031600051EC180B22463B4601F0E2FE01F0AEFEA8
:10317000054602F031FC4A46334641EC180B02F09A
:1031800079FC0028ECD009EE105A9FED1B0B51EC96
:10319000180B56EC109B4A46334688ED0B9A02F00A
:1031A0005BFCD0B99FED160B54EC107B51EC180B67
:1031B0003A46234601F0BCFE01F088FE054602F0C7
:1031C0000BFC4A46334641EC180B02F053FC002836
:1031D000ECD100EE105A88ED0B0A04B0BDEC108B58
:1031E00001B0BDE8F08300BF182D4454FB21094015
:1031F000182D4454FB2119C0182D4454FB2109C03B
:10320000182D4454FB21194070B52DED0A8B84B064
:1032100040F27805C2F200052978B0EE408A0446F3
:1032200021B9204600F0D2F8012028706868010911
:103230007C2935D8461C03A902AA01AB00206E6088
:1032400000F096FC9DED030A94ED0C1A94ED0D2A06
:1032500094ED0E3A30EE010A9DED021A9DED014A01
:1032600031EE021A34EE032AB6F5FA6F84ED0C0A39
:1032700084ED0D1A84ED0E2A0DD19FED533A80EEA8
:10328000030A81EE031A82EE032A84ED0C0A84ED10
:103290000D1A84ED0E2A04B0BDEC0A8B70BD00BF80
:1032A00004F11400221D04F10803214600F00CFB78
:1032B00094ED029A94ED01AA29EE090A2AEE0A1A5F
:1032C00031EE000AF1EEC00A94ED000AB1EE400AB8
:1032D00000F0B6FD84ED030AB0EE4A0AF0EE490AAA
:1032E00000F0AEFD84ED040A04F1180004F1600161
:1032F000B0EE480AFFF778FEA8684CF6CD41CCF650
:10330000CC414143B1F1333F02D9411C00204FE091
:1033100004F14C0004F1500104F15402FFF794FA57
:1033200094ED199A94ED188AB0EE490A00F0DEFE89
:10333000B0EE40AAB0EE480A01F0C2FAB0EE40BAD0
:10334000B0EE490A01F0BCFA2BEE00CAB0EE480A12
:1033500000F0CCFEB0EE40BAB0EE490A01F0B0FA8F
:103360002BEE00BAB0EE480A00F0C0FEB0EE409A74
:10337000B0EE480A01F0A4FA94ED131A94ED142A61
:1033800094ED153A2CEE024A2AEE011A31EE041A97
:103390002BEE034A74EE010A29EE021A20EE030A0C
:1033A00030EE410A00F04CFD84ED160A01210120A7
:1033B00084F85C002046A96004B0BDEC0A8BBDE82F
:1033C0007040FFF76DBD00BF0000FA4470B52DEDF1
:1033D0000A8B82B004460020002100220025FFF75E
:1033E00033FA002000210022002300F0C1FB00205E
:1033F00000210022002300F067FA0195019841F2B4
:103400008736B0421ADC41F2883000BF01990131A1
:1034100001910199B14211DC0199013101910199A8
:10342000B1420BDC0199013101910199B14205DCF6
:1034300001990131019101998142E7DB00200021CE
:103440000022FFF701FA002000210022002300F0F3
:103450008FFB002000210022002300F035FA0195A7
:103460000198B0421CDC41F2873041F2883100BF44
:10347000019A01320192019A824211DC019A0132D1
:103480000192019A82420BDC019A01320192019A67
:10349000824205DC019A01320192019A8A42E7DBFD
:1034A0000020002100220025FFF7CEF90020002196
:1034B0000022002300F05CFB0020002100220023FA
:1034C00000F002FA0195019841F28736B04219DC0A
:1034D00041F288300199013101910199B14211DC29
:1034E0000199013101910199B1420BDC019901313E
:1034F00001910199B14205DC0199013101910199D4
:103500008142E7DB002000210022FFF79DF9002027
:1035100000210022002300F02BFB002000210022CC
:10352000002300F0D1F901950198B0421CDC41F272
:10353000873041F2883100BF019A01320192019A2D
:10354000824211DC019A01320192019A82420BDC23
:10355000019A01320192019A824205DC019A0132FC
:103560000192019A8A42E7DB002000210022002517
:10357000FFF76AF9002000210022002300F0F8FA8A
:10358000002000210022002300F09EF901950198FF
:1035900041F28736B04219DC41F28830019901319D
:1035A00001910199B14211DC019901310191019917
:1035B000B1420BDC0199013101910199B14205DC65
:1035C00001990131019101998142E7DB002000213D
:1035D0000022FFF739F9002000210022002300F02B
:1035E000C7FA002000210022002300F06DF90195A8
:1035F0000198B0421CDC41F2873041F2883100BFB3
:10360000019A01320192019A824211DC019A01323F
:103610000192019A82420BDC019A01320192019AD5
:10362000824205DC019A01320192019A8A42E7DB6B
:103630000020002100220025FFF706F900200021CC
:103640000022002300F094FA002000210022002331
:1036500000F03AF90195019841F28736B04219DC41
:1036600041F288300199013101910199B14211DC97
:103670000199013101910199B1420BDC01990131AC
:1036800001910199B14205DC019901310191019942
:103690008142E7DB002000210022FFF7D5F800205F
:1036A00000210022002300F063FA00200021002204
:1036B000002300F009F901950198B0421CDC41F2A9
:1036C000873041F2883100BF019A01320192019A9C
:1036D000824211DC019A01320192019A82420BDC92
:1036E000019A01320192019A824205DC019A01326B
:1036F0000192019A8A42E7DB002000210022002586
:10370000FFF7A2F8002000210022002300F030FA89
:10371000002000210022002300F0D6F80195019836
:1037200041F28736B04219DC41F28830019901310B
:1037300001910199B14211DC019901310191019985
:10374000B1420BDC0199013101910199B14205DCD3
:1037500001990131019101998142E7DB00200021AB
:103760000022FFF771F8002000210022002300F062
:10377000FFF9002000210022002300F0A5F80195A8
:103780000198B0421CDC41F2873041F2883100BF21
:10379000019A01320192019A824211DC019A0132AE
:1037A0000192019A82420BDC019A01320192019A44
:1037B000824205DC019A01320192019A8A42E7DBDA
:1037C00004F11400221D04F10803214600F07CF8E6
:1037D00094ED028A94ED019A28EE080A29EE091A5E
:1037E00031EE000AF1EEC00A94ED000AB1EE400A93
:1037F00000F026FBB0EE40AA84ED030AB0EE490AC1
:10380000F0EE480A00F01CFB04F14C0004F15001FA
:1038100004F1540284ED040A84ED180A84ED19AA17
:10382000FFF712F894ED199A94ED188AB0EE490A50
:1038300000F05CFCB0EE40AAB0EE480A01F040F89F
:10384000B0EE40BAB0EE490A01F03AF82BEE00CAE9
:10385000B0EE480A00F04AFCB0EE40BAB0EE490AB9
:1038600001F02EF82BEE00BAB0EE480A00F03EFC54
:10387000B0EE409AB0EE480A01F022F894ED131A27
:1038800094ED142A94ED153A2CEE024A2AEE011A10
:1038900031EE041A2BEE034A74EE010A29EE021AE5
:1038A00020EE030A30EE410A00F0CAFA012084ED4E
:1038B000160A84F85C0084ED1A0A02B0BDEC0A8B8B
:1038C00070BD0000000000002DE9F04381B02DED37
:1038D000048B82B00646002091460C46ADF80400E9
:1038E00000900DF1070141200122984600F0AAF84E
:1038F0009DF80700032805D84CA101EB800090ED4E
:10390000000A01E09FED480A69461220062286ED72
:10391000000A00F097F8BDF900009FED488A00EE1C
:10392000100AB8EEC00A9FED469A20EE080A20EE73
:10393000090A10EE100A02F04FF806469DF807003B
:103940000F46013001F08EFD41EC100B00F024FE1B
:1039500051EC100B32463B4601F010FE9FED300B50
:1039600056EC107B3A46334601F008FE01F0AEFA01
:10397000BDF90210206000EE101AB8EEC00A20EE69
:10398000080A20EE090A10EE100A02F025F8044693
:103990009DF807000D46013001F064FD41EC100B6D
:1039A00000F0FAFD51EC100B22462B4601F0E6FD2B
:1039B0003A46334601F0E2FD01F088FABDF9041001
:1039C000C9F8000000EE101AB8EEC00A20EE080A8E
:1039D00020EE090A10EE100A01F0FEFF04469DF8E1
:1039E00007000D46013001F03DFD41EC100B00F0E9
:1039F000D3FD51EC100B22462B4601F0BFFD3A4699
:103A0000334601F0BBFD01F061FAC8F8000002B0D6
:103A1000BDEC048B01B0BDE8F08300BF00BF00BF68
:103A2000000000000000F83F0000000000004040DF
:103A30000000C040000040410000C04100000038CC
:103A400000007A44F0B581B00024C4F202041546A7
:103A50000E46074604F5806001210122FCF7F2FDC5
:103A6000204610210022FCF7EDFD47F0800040F2D7
:103A70005017C2F200078DF803000DF1030138461C
:103A800001224FF47A73FDF70DFE00BF3846FDF7B3
:103A900057FC0328FAD040F25017C2F200070DF18C
:103AA0000201384601224FF47A73FDF7FBFC00BF98
:103AB0003846FDF745FC0428FAD040F25017C2F210
:103AC0000007384631462A464FF47A73FDF7EAFC80
:103AD0003846FDF735FC0428FAD020461021012293
:103AE000FCF7B0FD01B0F0BD70B582B00024C4F2A7
:103AF00002040D46064604F5806001210122FCF710
:103B0000A1FD204610210022FCF79CFD06F07F005D
:103B100040F25016C2F200068DF806000DF10601C3
:103B2000304601224FF47A73FDF7BCFD3046FDF7B5
:103B300007FC0328FAD08DF8075040F25015C2F266
:103B400000050DF10701284601224FF47A73FDF7B5
:103B5000A9FD00BF2846FDF7F3FB0328FAD0204655
:103B600010210122FCF76EFD02B070BD00000000C4
:103B7000F0B583B00546002016460F46ADF80800A4
:103B800001900DF10B010F2001221C4600F05AF8A4
:103B90009DF80B00042809D845F6A041C0F60001A5
:103BA00001EBC00090ED000B02E000BF9FED200B89
:103BB0009FED211B51EC100B53EC112B01F074FA0B
:103BC00001F084F9286001A90220062200F03AF8E9
:103BD000BDF9040095ED001A00EE100AB8EEC00A17
:103BE0009FED172A21EE000A80EE020ABDF90600B9
:103BF00087ED000A00EE100A95ED001AB8EEC00A33
:103C000021EE000A80EE020ABDF9080086ED000AE6
:103C100000EE100A95ED001AB8EEC00A21EE000A77
:103C200080EE020A84ED000A03B0F0BD00BF00BFC1
:103C3000000000000000000000000000008066405E
:103C400000FEFF46F0B581B040F20044C4F2020429
:103C500015460E460746A4F5806010210122FCF7A8
:103C6000F1FC204601210022FCF7ECFC47F080002B
:103C700040F25017C2F200078DF803000DF1030166
:103C8000384601224FF47A73FDF70CFD3846FDF7F4
:103C900057FB0328FAD040F25017C2F2000738460B
:103CA00031462A464FF47A73FDF7FCFB3846FDF7A0
:103CB00047FB0428FAD0204601210122FCF7C2FC70
:103CC00001B0F0BD70B582B040F20044C4F202040D
:103CD0000D460646A4F5806010210122FCF7B2FCD7
:103CE000204601210022FCF7ADFC06F07F0040F2E7
:103CF0005016C2F200068DF806000DF1060130469E
:103D000001224FF47A73FDF7CDFC00BF3046FDF77A
:103D100017FB0328FAD08DF8075040F25015C2F275
:103D200000050DF10701284601224FF47A73FDF7D3
:103D3000B9FC00BF2846FDF703FB0328FAD0204654
:103D400001210122FCF77EFC02B070BD80B582B07B
:103D50007E20B621FFF7C8FE3220FCF78FFB14202F
:103D6000B621FFF7AFFF1E20FCF788FB00200021E3
:103D70000122FFF767FE7D200421FFF7B5FE052035
:103D8000FCF77CFB7C200021FFF7AEFE0520FCF752
:103D900075FB0DF1070102200122FFF753FE0F20F2
:103DA0000221FFF78FFF41200021FFF79DFE4020F9
:103DB0000A21FFF799FE02B080BD0000FCF742FF28
:103DC000FEF768FFFEF7C6FDFEF760FEFEF788FE11
:103DD000FEF73AFE40F2A810C2F20000FEF706F825
:103DE000FFF7B4FFFEF76EFDFEE703B40198410054
:103DF000009850EAC12018BF04204A0D18BF40F0B7
:103E0000010040F2FF72B2EB515F08BF40F00200C8
:103E1000012808BF052002B070474100080218BF02
:103E200004200A0E18BF40F001004FF07F4232EA32
:103E3000010108BF40F00200012808BF05207047BB
:103E400070B54FF068422DED048BF0EE408A18EE0D
:103E5000900AB0EE608A18EE101A02EB4003B3F13C
:103E6000654F3CBF02EB4102B2F1654F7DD200BF0E
:103E7000C0F3C753C1F3C7529A1A1B2A09DD10F0C9
:103E8000004F14BF9FED830A9FED830ABDEC048BA6
:103E900070BD12F11A0F36DA11F0004F09D010F090
:103EA000004F0CBF9FED7D0A9FED7D0ABDEC048B9A
:103EB00070BD88EE889A19EE100AFFF7AEFF04284D
:103EC00008BF00F037FF18EE900AFFF7A6FF05467F
:103ED00018EE100AFFF7A1FF044619EE100AFFF7CB
:103EE0009CFF042D18BF052D08D1042C18BF052CEC
:103EF00004D1002804BF0220FCF773FAB0EE490A8F
:103F0000BDEC048B70BD4200B2EB410F3AD910F00A
:103F1000004F19BFDFED630A9FED630ADFED630A0F
:103F20009FED630AB0EE481A0A46B1EE688A80F047
:103F30000041F0EE418A10460A1A5200B2F1807F29
:103F400034D2484010F0004FDFED5A1A9FED5A2A44
:103F50001DBFBEEE001A70EEE10A30EE420AB6EE68
:103F6000001A08BF70EEA10A00E040E008BF30EE82
:103F7000020AB0EE682A01EE482A08EE818AC2EEF3
:103F8000081A15E011F0004F04BF9FED4C0AF0EE47
:103F9000400AD1D010F0004F19BFDFED490A9FED64
:103FA000490ADFED490A9FED490AC5E7C8EE881ABC
:103FB00021EEA11A9FED462ADFED462A41EE022AA4
:103FC0009FED452A01EE222ADFED442A41EE022A26
:103FD0009FED432ABDEC048B01EE222A21EE811ACB
:103FE00001EE020A30EE210A30EE200A70BD4FF0D9
:103FF0007F42B2EB400F28BFB2EB410F09D2F0EE87
:10400000480AB0EE680ABDEC048BBDE8704000F0D1
:1040100086BE40EA01035B0008BF41F0FF410BD0C0
:10402000B2EB400F08BFB2EB410F08D120F0804047
:1040300008EE900A21F0804108EE101A18E7B2EB62
:10404000400F12BF5FEA410340F0FF4001F0004122
:104050003FF40EAFB2EB410F12BF5FEA400200F037
:10406000004041F0FF413FF403AF4A0092EA4003B1
:104070003FF5FEAE002AACBF9FED1A0A9FED1A0A6B
:1040800068EE808A28EE008A18EE900A18EE101A60
:10409000EEE60000DB0FC9BFDB0FC93FDB0F494075
:1040A000DB0F49C00000C9BF22AAFDB90000C93F0B
:1040B00022AAFD390060ED3EC30ACE3700000000A1
:1040C000000049C022AA7DBA0000494022AA7D3AD8
:1040D0002DAD65BD8FB8D53D0FB511BE61C84C3E45
:1040E000A8AAAABE0000804F0000802F10EE101A70
:1040F00008B5444A6846B2EB410F28D94FF0E64074
:10410000B0EB410F94BF00204FF0FF3000900098BB
:10411000002861DB60EE000A10F0010F45D010F0BE
:10412000020FDFED391A9FED391A00EEA11ADFED0B
:10413000381A40EE811A21EEA01AF0EE400A40EE45
:10414000010A08BFF1EE600AB0EE600A08BD314B0B
:1041500021F0004293423CD911F0004FDFED2E0ACE
:1041600020EE201ADFED2D0A19BF31EE601A71EE34
:10417000200A31EE201A71EE600ABDEEE01A11EE4F
:10418000100A9FED271A00F0030000EEC10A9FED10
:10419000251A009000EEC10A9FED231A00EEC10A15
:1041A0009FED221A00EEC10AB1E79FED211A9FEDA3
:1041B000210A10F0020F00EE810A9FED1F1A00EE97
:1041C000801AB7EE000A00EE810A18BFB1EE400A6D
:1041D00008BD00F0B7FD9AE710EE100A4000B0F1FC
:1041E0007F4F3CBFB7EE000A08BD07D14FF001007A
:1041F000FCF7F7F8BDE8084000F094BDBDE80840C2
:1042000000F08ABDB61F927E336D4CB9DA82083C4D
:10421000A0AA2ABE490E494683F9223F0000004B5E
:104220000000C93F00A0FD390020A2331A61342CE0
:10423000B93AB2BACA9F2A3DDDFFFFBE00000000B6
:1042400070B52DED020B2DED0A8B82B00D98C40FC9
:1042500020F00045AE48854248D3AE48854219D388
:104260000C99C5F31300084309D09DED0C0B02B067
:10427000BDEC0A8B02B0BDE8704000F023BD002CFD
:1042800014BF9FEDA50B9DED0C0B02B0BDEC0A8B8E
:1042900002B070BD9FEDA20B53EC102B9DED0C0BEB
:1042A00051EC100B01F068FA0AD20220FCF799F8E1
:1042B00002B0BDEC0A8B02B0BDE8704000F00CBD4E
:1042C0009FED990B53EC102B9DED0C0B51EC100B4B
:1042D00001F018F90AD20220FCF783F802B0BDEC15
:1042E0000A8B02B0BDE8704000F006BD90489FED1B
:1042F00092BBA8425CD29248854219D29148784438
:1043000000EBC40090ED000B53EC102B9DED0C0B5B
:1043100051EC100B01F072FA41EC1A0B8A48784408
:1043200000EBC40090ED009BC4F10100041B36E0DB
:104330009FED870B53EC102B9DED0C0B51EC100BEC
:1043400001F01CF941EC100B8348784400EBC400E9
:1043500090ED001B51EC100B53EC112B00F0E8FD1D
:1043600001F03AF8044601F066F841EC180B9FEDB5
:104370007C0B53EC102B01F001F99DED0C1B53EC61
:10438000112B01F02FFA41EC1A0B9FED770B51EC3A
:10439000180B53EC102B01F0F1F841EC190B51EC18
:1043A0001A0B53EC192B01F029FACDE90C011BE093
:1043B0006F48854217D29FED700B53EC102B9DED8B
:1043C0000C0B51EC100B00F0B3FD53EC1B2B01F068
:1043D000D3F908D29DED0C0B53EC1B2B51EC100BB9
:1043E00000F0A6FD6EE000249DED0C0B53EC102BAD
:1043F00051EC100B01F0C2F841EC180B604805219C
:10440000B0EE480AF0EE680A784400F0DFFB53ECA7
:10441000182B51EC100B01F0B1F89DED0C1B53EC77
:10442000112B01F0DFF941EC180B9FED570B5CB33A
:1044300053EC182B51EC100B01F0E0F99DED0C0B37
:1044400041EC1C0B53EC182B51EC100B01F096F8BF
:1044500053EC1C2B00F028FE53EC192B01F0C2F991
:1044600053EC1A2B01F0CAF953EC1B2B01F0BAF9EB
:10447000CDE900016FF47F70844226DB01EB04502C
:1044800001909DED000B00E753EC102B51EC180B45
:1044900001F0B4F99DED0C0B41EC190B53EC182B0A
:1044A00051EC100B01F06AF853EC192B00F0FCFDF5
:1044B0009DED0C1B53EC112B01F0A0F953EC1B2BC1
:1044C00001F090F941EC100BDFE608464FF07A510D
:1044D00001EB04519FED2E0B084453EC102B01907F
:1044E0009DED000B51EC100B01F048F80D4645EC2A
:1044F000100B044651EC100BFFF777FC042808BFA3
:1045000000F0FAFB45EC104BBFE600000000000095
:10451000422E86400000F07F0000000000000000F6
:10452000EF39FAFE422E864051302DD5104987C012
:10453000422ED63F00000000000000000000F03FC7
:10454000B2A2F03F3619000026190000000000005A
:10455000FE822B654715F73FDA18000000000000C7
:104560000000E0FE422EE63F763C7935EF39EA3D29
:104570000000303E000000009C7500883CE4377E5F
:104580004C18000000000000000000000000004087
:10459000000000000000700110B52DED068BB0EE9C
:1045A000408AF0EE608A18EE101A84B018EE900A75
:1045B0008DED008B002918BF0121084320F0004039
:1045C000C0F17F6000F1E040C00F9FED47AB9FED71
:1045D000489B06D153EC192B51EC180B00F0C0FE90
:1045E00009D1B0EE480AF0EE680A00F06BFB04B0A7
:1045F000BDEC068B10BD9FED400B51EC180B53EC3E
:10460000102B00F0ADFE01BFB0EE4A0AF0EE6A0AD0
:1046100004B0BDEC068B08BF10BD02AA51EC180B0C
:1046200000F04BFC9FED360B41EC180B53EC102BBC
:104630009DED020B51EC100B00F064FF38BF324CC3
:1046400014D39FED330B53EC102B9DED020B51EC6B
:10465000100B01F091F838BF4FF4006406D39DEDC4
:10466000020B51EC100B00F0B7FE04469FED2A0B35
:1046700051EC180B53EC102B00F080FF00F00CFCF9
:10468000224600F011FC41EC180B04F57F7040F25B
:10469000FB71884221D353EC1A2B51EC180B00F01C
:1046A0005FFE05D10220FBF79CFE00F025FB9EE794
:1046B00053EC192B51EC180B00F052FE05D10220DF
:1046C000FBF78FFE00F008FB91E751EC180BFFF7AA
:1046D0008CFB042808BF00F00FFBB0EE480AF0EE98
:1046E000680A84E7000000000000000000000000ED
:1046F000000000000000F07F000000000000F0FF5C
:10470000000000000000A0C000F8FFFF0000000053
:10471000000000000000A040EF39FAFE422EE63F04
:1047200030B540F2FF742DED048BF0EE608A18EE88
:10473000901A85B0B0EE408A9FED2B9B05468DED1B
:10474000008B34EA115147D053EC192B51EC180B64
:1047500000F006FE40D02A4651EC180B01F01BFA7F
:1047600041EC180B18EE900A8DED008B34EA1050D6
:104770001CD053EC192B51EC180B00F0F1FD2BD190
:104780000220FBF72EFE00F0B7FA10EE901A18EE9A
:10479000900A8DED020B8DED008B61F31E000390EE
:1047A0009DED020B05B0BDEC048B30BD0220FBF784
:1047B00018FE00F091FA10EE901A18EE900A8DEDA6
:1047C000020B8DED008B61F31E0003909DED020B3B
:1047D00005B0BDEC048B30BD05B0B0EE480AF0EE7C
:1047E000680ABDEC048B30BD000000000000000032
:1047F00031B52DED020BDDE900C2BCF1000F14BF95
:104800000121002141EA420111F5001F07D99DED68
:10481000000B80ED000B9DED000B03B030BDC2F32B
:104820000A510024A1F2FF3102F0004314291EDADC
:104830000029B8BFC0E9004329DB204D25FA01F16A
:1048400002EA010555EA0C0C1BD022EA0101C0E97D
:10485000004190ED000B53EC102B9DED000B51EC43
:10486000100B00F0CBFF03B041EC100B30BD33292F
:1048700007DC4FF0FF35143925FA01F11CEA010F6E
:1048800009D19DED000B80ED000BCDE900439DEDBE
:10489000000B03B030BD2CEA0101C0E9001290ED1D
:1048A000000B53EC102B9DED000B51EC100B00F0A6
:1048B000A5FF03B041EC100B30BD0000FFFF0F005F
:1048C00000B510EE101A2DED028B81B0524A6846E9
:1048D000B2EB410F2ED94FF0E640B0EB410F94BF41
:1048E00000204FF0FF3000900098B0EE408A002882
:1048F0006ADB10F0010F4BD068EE080A9FED471AF3
:104900009FED470A00EE810A9FED461A10F0020F54
:1049100000EE801AB7EE000A00EE810A02BF01B075
:10492000BDEC028B00BD00BF01B0B1EE400ABDEC92
:10493000028B00BD3C4B21F00042934241D911F063
:10494000004FDFED3A0A20EE201ADFED390A19BFD9
:1049500031EE601A71EE200A31EE201A71EE600A13
:10496000BDEEE01A11EE100A9FED321A00F00300BE
:1049700000EEC10A9FED301A009000EEC10A9FEDD3
:104980002F1A00EEC10A9FED2E1A00EEC10AABE706
:1049900028EE080A9FED2B1ADFED2B0A10F0020F0C
:1049A00040EE010A9FED291A00EE201A61EE000A7E
:1049B000B0EE480A08EE200AB6D101B0BDEC028B79
:1049C00000BD00F0BFF98FE718EE100A4000B0F10B
:1049D0007F4F0DD218EE100AFFF71FFA042808BF08
:1049E00000F0A8F9B0EE480A01B0BDEC028B00BDA2
:1049F00009D10120FBF7F5FC01B0BDEC028B5DF89D
:104A000004EB00F08FB901B0B0EE480ABDEC028BA8
:104A10005DF804EB00F080B9B61F927EB93AB2BAE5
:104A2000CA9F2A3DDDFFFFBE490E494683F9223F5A
:104A30000000004B0000C93F00A0FD390020A23358
:104A40001A61342C336D4CB9DA82083CA0AA2ABE14
:104A500000B510EE101A2DED028B81B04D4A68465C
:104A6000B2EB410F3CD94FF0E640B0EB410F94BFA1
:104A700000204FF0FF3000900098B0EE408A0028F0
:104A80005FDB28EE080ADFED440A9FED441A00EED2
:104A9000201ADFED430A40EE010A9FED421A00EEB4
:104AA000201ADFED410A10F0010F40EE010A9FEDE0
:104AB0003F1A00EE201A61EE000AB0EE480A08EE36
:104AC000200A02BF01B0BDEC028B00BDBFEE001A90
:104AD00001B0C1EE000ABDEC028BB0EE600A00BD71
:104AE000334B21F00042934228D911F0004FDFED03
:104AF000310A20EE201ADFED300A19BF31EE601ABC
:104B000071EE200A31EE201A71EE600ABDEEE01A55
:104B100011EE100A9FED291A00F0030000EEC10A01
:104B20009FED271A009000EEC10A9FED261A00EEB5
:104B3000C10A9FED251A00EEC10A9DE700F002F9B7
:104B40009AE718EE100A4000B0F17F4F0DD218EE30
:104B5000100AFFF762F9042808BF00F0EBF8B0EE86
:104B6000480A01B0BDEC028B00BD09D10120FBF762
:104B700038FC01B0BDEC028B5DF804EB00F0D2B85C
:104B800001B0B0EE480ABDEC028B5DF804EB00F01A
:104B9000C3B80000B61F927EBCE9223C0B6D063BF9
:104BA0008A76CE3CACB5593D35A1083E29AAAA3E2D
:104BB000490E494683F9223F0000004B0000C93FDF
:104BC00000A0FD390020A2331A61342C70B50446D0
:104BD0002DED028B4D1E00EBC500B0EE408AF0EECD
:104BE000608A90ED000B35F0060017D053EC182BBF
:104BF00051EC100B00F0C2FC41EC100B6D1E04EBED
:104C0000C50090ED001B51EC100B53EC112B00F084
:104C10008FF941EC100B35F00600E7D1022D36D0AC
:104C2000042D1CD0062D1CBFBDEC028B70BD53ECB7
:104C3000182B51EC100B00F0A1FC94ED0A1B53EC67
:104C4000112B00F075F953EC182B00F097FC94ED44
:104C5000081B53EC112B00F06BF941EC100B53ECDB
:104C6000182B51EC100B00F089FC94ED061B53EC53
:104C7000112B00F05DF953EC182B00F07FFC94ED44
:104C8000040B53EC102B00F053F941EC100B53ECD8
:104C9000182B51EC100B00F071FC94ED021B53EC3F
:104CA000112B00F045F953EC182B00F067FC94ED44
:104CB000001B53EC112B00F03BF9BDEC028B41ECD7
:104CC000100B70BD10B553EC102B51EC100B00F015
:104CD0002FF941EC100B10BD9FED050B10B553ECF7
:104CE000102B51EC100B00F049FC41EC100B10BDE7
:104CF00000000000000000709FED050B10B553ECA4
:104D0000102B51EC100B00F039FC41EC100B10BDD6
:104D1000000000000000001030EE000A704730EE86
:104D2000200A7047DFED020A80EEA00A70470000FB
:104D3000000000009FED020A20EE000A704700000C
:104D4000000000102DE9F0014FF07F42B2EB410F5F
:104D50009FBF4FF0FF310160BDE8F00170474FF099
:104D6000004242EA0123C1F3C752783A551112F0CA
:104D70001F0C434CCCF120067C44C1F3C752A2F176
:104D800078024FEA621204EB820254F8254008BF11
:104D9000D2E9015612D0556804FA0CF425FA06F748
:104DA0003C43976805FA0CF527FA06F8D26807FA2B
:104DB0000CFCF24045EA08054CEA0206A4FB034C51
:104DC000A5FB0352A6FB03631D449D4234BF01268D
:104DD00000261319334416B1934202D903E09342DB
:104DE00001D2012200E00022624402F1200C92066E
:104DF000DC0C42EA443200EE102A5B03DFED210AAC
:104E0000F8EEC01A00EE103A4FEA9C1C11F0004F69
:104E1000B8EE400AC0F800C020EE201A00EE105A8A
:104E2000DFED190AB8EE400A20EE200A71EE810A81
:104E300070EE800A10EE902A02F500626FF30B020A
:104E400000EE902A70EEE11A31EEC11ADFED101A71
:104E500030EE411A9FED0D0A20EE800A01EE210A84
:104E60009FED0C1A00EE810A04BFBDE8F001704707
:104E7000CCF180510160BDE8F001B1EE400A70470D
:104E8000040F0000000000360000802C22AAFD293B
:104E9000DB0FC92F0000C92F10B541EC100BFFF735
:104EA000CFF951EC100B10BD10B541EC100B1046B2
:104EB000FFF736FC51EC100B10BD10B541EC100B98
:104EC0001046FFF795FC51EC100B10BD21F000428D
:104ED00001F00043A2F16052B2F5801F28BFD2F169
:104EE0007F6C0BD95FEA001C43EAC20242EB5070B0
:104EF00018BF704728BF20F001007047B2F5801F2F
:104F0000BCBF184670474FEA410C1CF5001F02D287
:104F1000084600F009BE70B500F0DAFB0000008919
:104F2000FFF7F6BF4FF00040A0F58000704700008B
:104F300010B591EA030F48BF83F0004300F1668487
:104F4000841A71EB030C05D2121943EB0C03001BFE
:104F500061EB0C014FEA1154A4EB135CDFF81CE188
:104F60001EEA430F18BF9EEA445F00F0748021EAF6
:104F7000045123EA0E0343F48013DCF1200E32D3F4
:104F800022FA0CFE10EB0E0023FA0CFE41EB0E0190
:104F9000CCF1200E03FA0EFE10EB0E00CCF1200E29
:104FA00051F10001B1F5801F32D201EB045112FA28
:104FB0000EF2BDE8104058BF7047401C38BF5FEA92
:104FC000420218BF7047002814BF20F0010041F1D1
:104FD00000014FEA410313F5001F38BF7047A1F1EC
:104FE000C04100F0C3BB012A43EB0302ACF1200C2B
:104FF000DCF11F0E32BF4FF0000E23FA0CF310EB62
:10500000030041EB0451B4EB115FD0D0A1EB04518C
:1050100001F58011490801EB04515FEA30000ED31D
:1050200050F1000038BF12FA0EFE08D1BDE8104062
:10503000C9E7401C38BF5FEA4202CAD1C3E7BDE8F6
:1050400010404FEA410313F5001F38BF7047A1F12C
:10505000C04100F08BBB9EEA445F08D011EA5E0FAE
:10506000BDE8104004BF01F0004100207047BDE8DA
:10507000104070B500F02CFB64FBBE3E0000E0FF6A
:1050800002494FF0000000F054BD00BF0000F87F5F
:10509000491058BFC1F140415B1058BFC3F14043B4
:1050A0008B42EFF3008070472DE9C04130B4DFF848
:1050B000A8C23CEA111418BF3CEA131400F0F080B7
:1050C0001CEA111481EA030544EAD57418BF1CEAEE
:1050D000131500F0CB80A4EB050404F17F7404F5F4
:1050E00000344FF0004545EAC12145EAC32341EAB7
:1050F000505143EA52534FEAC0204FEAC22299422C
:1051000008BF904200F0A0804FEA13650FF24816E6
:10511000765D4FEA134506FB05F7C7F1807706FB7E
:1051200007F74FEAD737A7FB03687642A7FB06CEFF
:10513000C8F5803838BFA8F1010807FB08E6A6FBD0
:10514000028C4FF0000EE6FB03CED8F100086FEAA8
:105150000C0C5CF1000C6FEA0E0E4EF1004EA6FB3B
:105160000C584FF00007E6FB0E87A1FB08C6A0FB1A
:1051700007CE16EB0E064FF0000545F10005E1FBEA
:10518000076515F1E04E7EBFA4F580345FEA460660
:105190006D4116F1800745F100054FEA172747EAF0
:1051A00005674FEA15254FEA0666A6F1DE46B6F119
:1051B000805F20D9384605EBC47124F0010C01EB67
:1051C0000C11BCF1FE6F02D8F0BCBDE80081244296
:1051D0005CBF01F5801E9EEAC47F02D4F0BCBDE82E
:1051E0000081244200F13980A1F1C041F0BCBDE84A
:1051F000004100F0BBBA4FEAD02040EA41504FEAEC
:10520000D1214FEAD22242EA43524FEAD323A7FBED
:10521000028607FB036605FB02661EEA0E0F58BFF7
:10522000A6EB0056B6EB00564FEA520E4EEAC37E8E
:1052300018EB0E0E56EB530EBCD518EB02085E4170
:105240007F1C55F10005B5E74FF480154FF00007BE
:105250004FF000064FF00008ACE701F1C04101F04B
:1052600000414FF00000F0BCBDE800810CEA1315CE
:1052700011EA0C1F00D00CE013EA0C1F00F025808F
:105280004FF0000081EA030101F00041F0BCBDE8ED
:105290000081F0BCBDE8004181EA030100F066BA7C
:1052A000F0BCBDE8004170B500F012FA097EFC3E8A
:1052B00000F007B84FF0000081EA030101F000415F
:1052C000704781EA030100F051BAF0BCBDE800412B
:1052D00022494FF000007047FFFDFBF9F7F5F4F2AB
:1052E000F0EEEDEBE9E8E6E4E3E1E0DEDDDBDAD881
:1052F000D7D5D4D3D1D0CFCDCCCBCAC8C7C6C5C4DF
:10530000C2C1C0BFBEBDBCBBBAB9B8B7B6B5B4B3F5
:10531000B2B1B0AFAEADACABAAA9A8A8A7A6A5A4E0
:10532000A3A3A2A1A09F9F9E9D9C9C9B9A999998A4
:105330009797969595949393929191908F8F8E8E47
:105340008D8C8C8B8B8A89898888878786858584D4
:1053500084838382828181800000FF070000F87FC0
:1053600051EA030C17D41CF5801F58BFBCF5801FF1
:1053700000F10680994218BF704708BF90427047FD
:1053800007D711F5801F58BF13F5801F19D4994214
:105390007047894270471CF5801F08D5BCF5801FF7
:1053A000F7D58B4218BF704708BF824270474FF451
:1053B000001C1CEB410F38BF1CEB430F01D28B428A
:1053C000704770B500F084F9922449004FF0005105
:1053D0004FF08053FFF75CBE4FEA41034FEA53534F
:1053E000A3F58063D3F11E03C8BFD3F1210C0CDDFC
:1053F0004FF0004242EAC12242EA505232FA03FC24
:105400008CEAE17CACEBE1707047102BC4BF00204C
:10541000704703F5787CBCF1FF3F04D06FF0004289
:1054200082EA2100704770B500F052F94992248059
:1054300000207047F2E710F0004248BF4042B0FA47
:1054400080F310FA03F10AD0C3F11D0303F5806362
:1054500002EB03524FEA415002EBD12170474FF06B
:1054600000007047B0FA80F310FA03F10AD0C3F1DC
:105470001D0303F580634FEA03524FEA415002EBEC
:10548000D12170474FF000007047000051EA030C33
:1054900017D41CF5801F58BFBCF5801F00F1068093
:1054A000994218BF704708BF9042704707D711F55F
:1054B000801F58BF13F5801F19D499427047894245
:1054C00070471CF5801F08D5BCF5801FF7D58B42AF
:1054D00018BF704708BF824270474FF4001C1CEB96
:1054E000410F38BF1CEB430F01D28B42704770B5A0
:1054F00000F0EEF8922449004FF080514FF0005335
:10550000FFF7C6BD51EA030C17D41CF5801F58BF26
:10551000BCF5801F00F10680994218BF704708BF94
:105520009042704707D711F5801F58BF13F5801FB1
:1055300019D499427047894270471CF5801F08D5DD
:10554000BCF5801FF7D58B4218BF704708BF824259
:1055500070474FF4001C1CEB410F38BF1CEB430F8E
:1055600001D28B42704770B500F0B2F89224490026
:105570004FF000514FF08053FFF78ABD70B5DFF850
:1055800048C11CEA111E1EBF1CEA13159EEA0C0F2F
:1055900095EA0C0F00F06F8081EA03044EEAD47E96
:1055A000AE4421EA4C1123EA4C1341F4801143F438
:1055B0008013AEF17F7EA1FB024CA0FB0365361980
:1055C00055EB0C05A1FB034C4CF10003A0FB021CA6
:1055D00016EB0C06654153F10003094218BF46F073
:1055E000010613F4007F0BD14FEA03314FEA053077
:1055F00041EA155140EA165034036FF003020AE005
:105600004FEAC3214FEAC52041EA555140EA5650BE
:10561000F4026FF0020202EB2E4201EB025585EA22
:10562000CE710AD05FEA440C18BF24F0004450F158
:10563000000041F1000120EAD47040F2FE7C624596
:1056400000D270BDA84214BF4FF080444FF04044D8
:10565000002E08BF0024BEF1806FA8BFA1F1C04199
:10566000BDE8704080F2828001F1C04101F000414C
:105670004FF0000070470CEA13159EEA0C0F18BF9C
:1056800095EA0C0F06D081EA030E4FF000000EF0F1
:10569000004170BD00F01CF88900013E00F007B821
:1056A00000F009B84FEA430C5FEA5C5C08D081EA7D
:1056B000030100F05BB84FEA410C5FEA5C5CF6D195
:1056C00002494FF0000070470000FF070000F87F1C
:1056D0000EF1020E2EF0030E5EF8046B364205D476
:1056E000012A43EB030515F5001F12D8012841EBF1
:1056F000010C1CF5001F0CD80ED14FEAD17C0CEB2D
:105700004C0C0CF1020C15F5001F08BF4CEBD37CC0
:1057100004E04FF0080C01E04FEAD37C0CEB4C05A1
:1057200026FA05F606F00706B6F1040C06D20EEBD3
:10573000860CBDE870404CF0010C6047DFE80CF0CF
:10574000090B02024FF00041A1F500214FF00000CB
:1057500070BD19461046012851EB010418BFD4F55D
:10576000001484BF002001F0004170BD0808A0F5BE
:1057700000114FEA3101704753EA010C17D41CF5B0
:10578000801F58BFBCF5801F00F106808B4218BFF8
:10579000704708BF8242704707D713F5801F58BF74
:1057A00011F5801F19D48B4270479B4270471CF53E
:1057B000801F08D5BCF5801FF7D5994218BF7047E8
:1057C00008BF904270474FF4001C1CEB430F38BFDA
:1057D0001CEB410F01D2994270470FB40CBC03BCC3
:1057E000FFF7C1BE10B591EA030F81F000413FF50C
:1057F000A7AB83F0004300F009B8000010B591EAB0
:10580000030F48BF83F000433FF59AAB841A71EB56
:10581000030C07D28CF0004C121943EB0C03001B55
:1058200061EB0C014FEA1154A4EB135CDFF8A4E127
:105830001EEA430F18BF9EEA445F00F0B48021EADD
:10584000045123EA6E035242C3EB6E0338BF5B1E62
:10585000DCF1200E25D322FA0CFE10EB0E0043FAE9
:105860000CFE41EB0E01CCF1200E03FA0EFE10EB04
:105870000E00CCF1200E51F1000129D401EB0451AE
:1058800012FA0EF2BDE8104058BF7047401C1CBF12
:10589000B2F1004F704700280CBF491C20F00100F6
:1058A000704712EB020E43EB030218BF4FF0010EDC
:1058B0004EEA4202ACF1200CDCF11E0E56D943FA3E
:1058C0000CFE10EB0E00CCF11E0E51F1FF31D5D5C0
:1058D0000EF1010E12FA0EFE404141EB010101EB07
:1058E000445C5FEA5C5C10D901EB045110EBDE70A4
:1058F00038BFBEF1004FBDE8104018BF7047002808
:105900000CBF491C20F00100704734D24FEAD42C60
:1059100024F4006411F500111BD0B1FA81F20B3AA6
:10592000A41AA41ED2F12003914030FA03F31943C4
:10593000904001EBCC7101EB0451002CBDE810400C
:10594000A8BF704701F1C04101F000414FF00000D5
:105950007047B0FA80F310FA03F102D1BDE81040AD
:105960007047E41A173C4805C90AE2E701EB045105
:10597000BDE81040704749104FEA300001EB045178
:10598000BDE8104002E04FF0000170474A0008BF38
:105990000042F8D0B2F5001F28BF704701F0004167
:1059A0004FF0000070479EEA445F07D011EA5E0F97
:1059B000BDE8104004BF002100207047BDE8104042
:1059C00070B5FFF785FE00BF40DFF63E104683F05E
:1059D000004170470000E0FF43004FEAD30C4FEA5C
:1059E0003C0C43401FBF40070CF1605113F0FE4FC9
:1059F00070471CF0006F03D10CF00041002070478D
:105A00000CF0004343EA507040EACC0010B500F0BF
:105A100038F800BF000000924FEA0001FFF7A6BE71
:105A20004FF00041A1F500214FF00000704710B584
:105A3000FFF796FC0CBF0120002010BD10B5FFF74A
:105A40008FFC14BF0120002010BD10B5FFF71EFD14
:105A50008CBF0120002010BD10B5FFF717FD2CBF33
:105A60000120002010BD10B5FFF74CFD94BF0120B0
:105A7000002010BD10B5FFF745FD34BF0120002008
:105A800010BD0EF1020E2EF0030E5EF8044B244200
:105A900004D44FEA4102B2F17F4F11D84FEA4003DC
:105AA000B3F17F4F0CD80ED14FEAD07C0CEB4C0CED
:105AB0000CF1020CB2F17F4F08BF4CEBD17C04E03B
:105AC0004FF0080C01E04FEAD17C0CEB4C0324FAB8
:105AD00003F404F00704B4F1040C06D20EEB840CBA
